:020000040800F2
:1000000070370020650200089F1000085710000894
:100010009D100008D30400082D1600080000000001
:10002000000000000000000000000000CD010008FA
:10003000D50400080000000011020008091500089E
:100040007F0200087F0200087F0200087F0200088C
:100050007F0200087F0200087F0200087F0200087C
:100060007F0200087F0200087F0200087F0200086C
:100070007F0200087F0200087F0200087F0200085C
:100080007F0200087F0200087F0200087F0200084C
:100090007F0200087F0200087F0200087F0200083C
:1000A0007F0200087F0200087F0200087F0200082C
:1000B0007F0200087F0200087F0200087F0200081C
:1000C0007F0200087F0200087F0200087F0200080C
:1000D0007F0200087F0200087F0200087F020008FC
:1000E0007F0200087F0200087F0200087F020008EC
:1000F0007F0200087F0200087F0200087F020008DC
:100100007F0200087F0200087F0200087F020008CB
:100110007F0200087F0200087F0200089515000892
:100120007F0200087F0200087F0200087F020008AB
:1001300000F002F800F03AF80AA090E8000C8244BF
:100140008344AAF10107DA4501D100F02FF8AFF29C
:10015000090EBAE80F0013F0010F18BFFB1A43F0A5
:1001600001031847B4240000D4240000103A24BF2F
:1001700078C878C1FAD8520724BF30C830C144BF0C
:1001800004680C607047000000230024002500264E
:10019000103A28BF78C1FBD8520728BF30C148BFEA
:1001A0000B6070471FB51FBD10B510BD00F058F9AA
:1001B0001146FFF7F7FF01F0C3FB00F076F903B437
:1001C000FFF7F2FF03BC00F07DF90000224B196835
:1001D0000868B0E8F00F80F30988BFF36F8F4FF025
:1001E000000080F311884EF00D0E704700000000F3
:1001F00006480068006880F3088862B661B6BFF3FD
:100200004F8FBFF36F8F00DF00BF00BF08ED00E02E
:10021000EFF30980BFF36F8F0F4B1A6820E9F00FDF
:10022000106008B54FF0500080F31188BFF34F8F76
:10023000BFF36F8F02F012F84FF0000080F31188C7
:10024000BDE8084019680868B0E8F00F80F3098835
:10025000BFF36F8F704700BF28000020EFF30580C9
:10026000704700000948804709480047FEE7FEE75D
:10027000FEE7FEE7FEE7FEE7FEE7FEE7FEE7FEE756
:1002800004480549054A064B7047000093150008CD
:1002900031010008703100207037002070330020D9
:1002A00070330020B2F120030AD5C2F1200320FAF6
:1002B00002F001FA03F321FA02F140EA0300704769
:1002C00021FA03F04FF000017047032A40F230801A
:1002D00010F0030C00F0158011F8013BBCF1020F87
:1002E000624498BF11F801CB00F8013B38BF11F808
:1002F000013BA2F1040298BF00F801CB38BF00F81F
:10030000013B11F0030300F02580083AC0F008809B
:1003100051F8043B083A51F804CBA0E80810F5E77F
:10032000121D5CBF51F8043B40F8043BAFF3008062
:10033000D20724BF11F8013B11F801CB48BF11F8D7
:10034000012B24BF00F8013B00F801CB48BF00F8A7
:10035000012B704710B5203AC0F00B80B1E818505F
:10036000203AA0E81850B1E81850A0E81850BFF49F
:10037000F5AF5FEA027C24BFB1E81850A0E818503E
:1003800044BF18C918C0BDE810405FEA827C24BF92
:1003900051F8043B40F8043B08BF7047D20728BF20
:1003A00031F8023B48BF11F8012B28BF20F8023B6F
:1003B00048BF00F8012B704702F0FF0343EA032215
:1003C00042EA024200F02CB84FF0000200B513469A
:1003D00094469646203922BFA0E80C50A0E80C5065
:1003E000B1F12001BFF4F7AF090728BFA0E80C5016
:1003F00048BF0CC05DF804EB890028BF40F8042B0F
:1004000008BF704748BF20F8022B11F0804F18BF7B
:1004100000F8012B70477047704770474FF000029B
:100420000429C0F0128010F0030C3FF4CFAFCCF1E0
:10043000040CBCF1020F18BF00F8012BA8BF20F874
:10044000022BA1EB0C01FFF7C1BF5FEAC17C24BF07
:1004500000F8012B00F8012B48BF00F8012B704772
:10046000754600F02BF8AE4605006946534620F06D
:100470000700854618B020B5FFF702FFBDE8204011
:100480004FF000064FF000074FF000084FF0000B50
:1004900021F00701AC46ACE8C009ACE8C009ACE803
:1004A000C009ACE8C0098D46704710B50446AFF3EB
:1004B00000802046BDE81040FFF781BE004870472D
:1004C0001031002001491820ABBEFEE726000200D3
:1004D0007047FEE77047000006490020C8610648E3
:1004E000016941F004010161016941F040010161CC
:1004F000704700004803002000200240064A002107
:10050000D16106490A6942F002020A61486108693C
:1005100040F040000861704748030020002002407E
:10052000044B0022DA61044A136943F001031361AA
:100530000180704748030020002002401448002238
:10054000C168CB06134904D5CA6942F00202CA61E8
:100550001022C3685B0705D5CB6943F00103CB616B
:1005600042F00402C369DB0707D0CB6943F0040300
:10057000CB61C16921F00101C161A2F5807101392E
:1005800001D0C2607047C16921F00101C1617047AB
:100590000020024048030020124A10B51368124997
:1005A00008E0441C06D018B11468E41A844201D94A
:1005B000032010BDCC68E407F3D1C868800601D5DC
:1005C0002020C860C868C00605D4C869C00702D129
:1005D000C868400703D5FFF7B1FF012010BD002018
:1005E00010BD0000200000200020024070B504462D
:1005F00000F0C0F80546601C02D0044800780444AE
:1006000000F0B8F8401BA042FAD370BD18000020DB
:100610002DE9F047054626480F460126017E0129AF
:100620000FD00121814601762868DFF888804CF2DE
:100630005034022808D0A2462046FFF7ADFFA8B1EB
:1006400031E00220BDE8F0872046FFF7A5FF08BB98
:100650000120FFF741FF2046FFF79EFFD8F810105A
:10066000064621F00401C8F810101CE04FF0FF30DE
:100670003860AC6811E02046FFF740FF5046FFF7B6
:100680008BFFD8F81010060021F00201C8F81010F6
:1006900001D03C6007E004F50064D5E9020100EBFD
:1006A000C120A042E7D8002189F818103046C9E7D8
:1006B00048030020002002400348016941F0800106
:1006C0000161002070470000002002402DE9F05F2A
:1006D00007461C4888460024017E15461E4601290F
:1006E00009D00121814601764CF2503A5046FFF77D
:1006F00053FF18B122E00220BDE8F09F012F02D085
:10070000022F00D00427D346DFF83CA02201284660
:100710003146FFF7C7FD81B208EB4400FFF700FF49
:100720005846FFF739FFDAF8102022F00102CAF824
:10073000102018B9641CE4B2BC42E7D3002289F847
:100740001820D9E748030020002002400649002075
:100750000A69120607D5054A4A60054A4A600969CE
:10076000090600D50120704700200240230167459B
:10077000AB89EFCD014800687047000020000020E1
:100780000248816802781144816070471800002097
:10079000074810B5016841F010010160032000F026
:1007A00095F80F2000F006F800F03EF8002010BD8C
:1007B0000020024000B5014687B00022372000F03B
:1007C00065F8372000F054F81348C16941F0200162
:1007D000C161C06905A900F020000690684600F0DC
:1007E0001DF900F03BF90D494000B0FBF1F10D4857
:1007F0000B4A491E0260416040F2E7320021C0E925
:100800000321816000F002FB10B1012007B000BDA0
:10081000044800F029FBF9E70010024040420F00B5
:1008200000140040000300200F4808B5816941F022
:1008300001018161816901F001010091C16941F00B
:100840008051C161C069002200F0805000900F21EA
:10085000901E00F01BF80548416821F0E06141F06E
:100860000071416008BD000000100240000001401E
:10087000002809DB00F01F0201219140400980009F
:1008800000F1E020C0F8001170470000F0B40E4BFA
:100890001B680C46C3F30223C3F10705042D00D9DE
:1008A0000425191D072901D2002300E0DB1E0126C3
:1008B00006FA05F1491E214099409E40761E1640D9
:1008C0003143F0BC01F029B80CED00E0064900F01E
:1008D000070208684FF6FF03184040EA0220034A67
:1008E00010430860704700000CED00E00000FA05BE
:1008F0002DE9F0470F46050061D0434E306800F007
:100900000700B84209D2306820F007003843306051
:10091000306800F00700B84251D128683B4C81078D
:1009200012D5400703D5606840F4E0606060287825
:10093000000703D5606840F4605060606068A96893
:1009400020F0F000084360602878C00728D068686D
:10095000012810D02168022810D0890700292EDA3A
:10096000616821F0030101436160FFF703FF8046E6
:1009700041F288390DE021688903EFE78901EDE74D
:10098000FFF7F8FEA0EB0801494502D90320BDE8B6
:10099000F0876068696800F00C00B0EB810FEFD160
:1009A000306800F00700B8420BD9306820F007002B
:1009B00038433060306800F00700B84201D00120B1
:1009C000E5E72878400705D56068E96820F4E0602D
:1009D000084360602878000706D56068296920F41C
:1009E000605040EAC100606000F048F86168084A61
:1009F000C1F30311515CC84006490860064800680D
:100A0000FFF7D8FE0020C2E700200240001002409D
:100A1000D0250008240000201C0000200F220260C6
:100A20000C4A536803F003034360536803F0F00378
:100A30008360536803F4E063C36052684FF4E0637B
:100A400003EAD20202610448006800F0070008606F
:100A50007047000000100240002002400448054991
:100A600000684968044AC1F30221515CC8407047DC
:100A70002400002000100240E025000812A185B0EB
:100A80000FC98DE80F0014A0144A00680490516843
:100A9000134801F00C03042B10D0082B0ED1C1F326
:100AA0008343C9031DF803000AD5516804AAC1F3A2
:100AB0004041515C0A4A5043B0FBF1F005B0704729
:100AC00008494843FAE7000002030405060708093D
:100AD0000A0B0C0D0E0F1010010200000010024056
:100AE00000127A0000093D002DE9F84F040070D093
:100AF0002078C04DC00749D06868C0F38100012844
:100B000007D06868C0F38100022809D16868C00373
:100B100006D52868800339D560680028E7D035E01D
:100B20006068B0F5803F0BD010B1B0F5A02F11D0A8
:100B3000286820F480302860286820F4802002E0B3
:100B4000286840F480302860606890B1FFF712FE9A
:100B500006460AE0286840F480202860F0E700BFDD
:100B6000FFF708FE801B642873D828688003F7D538
:100B70000CE0FFF7FFFD064605E000BFFFF7FAFDBA
:100B8000801B6428F0D828688003F7D420789A4E18
:100B900080074FF001094FF0000839D5686810F060
:100BA0000C0F07D06868C0F38100022809D168687B
:100BB000C00306D42868800714D52069012808D10D
:100BC00010E02069B0B1C6F80090FFF7D3FD0746EA
:100BD00005E00AE1FFF7CEFDC01B0228C4D8286853
:100BE0008007F7D52868616920F0F80040EAC10065
:100BF00028600DE0C6F80080FFF7BCFD074604E062
:100C0000FFF7B8FDC01B022823D828688007F7D457
:100C1000207800072CD57948A169D9B1C0F8009097
:100C2000FFF7A8FD074604E0FFF7A4FDC01B02285C
:100C30000FD8686A8007F7D571484FF4FA510068F9
:100C4000B0FBF1F0009000BF0098411E0091FAD275
:100C50000EE080E0C0F80080FFF78CFD074604E05E
:100C6000FFF788FDC01B022875D8686A8007F7D493
:100C70002078400760D5E8690027C00008D4E869FB
:100C800040F08050E861E869012700F08050009052
:100C90005C480168C90513D40168834641F480713A
:100CA0000160FFF767FD824606E000BFFFF762FDC7
:100CB000A0EB0A0064284ED8DBF80000C005F5D58B
:100CC000E06801280AD008B1052813D0286A20F06E
:100CD00001002862286A20F0040002E0286A40F03F
:100CE00001002862E06841F2883B98B1FFF742FDBD
:100CF00082460BE0286A40F004002862EEE700BF5D
:100D0000FFF738FDA0EB0A0159455AD8286A800739
:100D1000F6D50CE0FFF72EFD824605E0FFF72AFD31
:100D2000A0EB0A0159454CD8286A8007F6D41FB1B8
:100D3000E86920F08050E861E06988B36968C1F330
:100D40008101022944D00228C6F8608004D0FFF750
:100D500011FD044638E034E0FFF70CFD074604E0DF
:100D6000FFF708FDC01B02282BD828688001F7D4A4
:100D7000206AB0F5803F05D16868A16820F4003092
:100D800008436860D4E908010843696821F47411D4
:100D900008436860C6F86090FFF7ECFC044606E084
:100DA00025E000BFFFF7E6FC001B022809D82868F1
:100DB0008001F7D51BE000BFFFF7DCFC001B022819
:100DC00002D90320BDE8F88F28688001F4D40EE032
:100DD0000128F7D06868226A00F48031914204D17A
:100DE000616A00F47010884201D00120EAE7002017
:100DF000E8E7000000100240000042428004424246
:100E000024000020007000407047704710B50400B7
:100E100003D094F83D0010B107E0012010BD002080
:100E200084F83C00204600F01EF8022084F83D00C3
:100E3000211D206800F0B4FB012084F8460084F8EE
:100E40003E0084F83F0084F8400084F8410084F8B4
:100E5000420084F8430084F8440084F8450084F894
:100E60003D00002010BD704790F83D10012901D0D1
:100E700001207047022180F83D100168CA6842F0E5
:100E80000102CA6000680E4988420ED00D498842AE
:100E90000BD0B0F1804F08D00B49884205D00B49E8
:100EA000884202D00A49884204D1816801F00701D2
:100EB000062903D0016841F001010160002070475C
:100EC000002C0140003401400004004000080040B4
:100ED000000C0040704770B50446006801694FF08F
:100EE0000005C943890715D4C168C943890711D4CE
:100EF000E91E016101202077206880698007204673
:100F000002D0FFF7E7FF04E000F098F8204600F079
:100F100096F8257720680169C943490717D4C16845
:100F2000C943490713D46FF00401016102202077FF
:100F30002068806910F4407F204602D0FFF7CAFF86
:100F400004E000F07BF8204600F079F8257720686F
:100F50000169C943090716D4C168C943090712D4F6
:100F60006FF008010161042020772068C0698007C4
:100F7000204602D0FFF7AEFF04E000F05FF8204605
:100F800000F05DF8257720680169C943C90617D4C8
:100F9000C168C943C90613D46FF01001016108206C
:100FA00020772068C06910F4407F204602D0FFF708
:100FB00091FF04E000F042F8204600F040F8257769
:100FC00020680169C943C90708D1C168C943C90775
:100FD00004D1891E0161204600F032F820680169C1
:100FE000C943090609D4C168C943090605D46FF08D
:100FF000800101612046FFF707FF20680169C943AE
:10100000490609D4C168C943490605D46FF04001B7
:101010000161204600F01EF820680169C943890675
:101020000BD4C168C943890607D46FF02001016160
:101030002046BDE87040FFF7E8BE70BD70477047BE
:1010400000680349884201D1FFF79ABB704700004E
:10105000001400407047FEE700B587B01C22064927
:101060006846FFF777F90021684600F07BFD0349E9
:10107000086007B000BD0000B4250008140000207F
:10108000054808B5816941F004018161806900F07B
:101090000400009008BD000000100240FEE7FEE7DB
:1010A0002DE9F04104461448DDF818801D4600780B
:1010B00016460F4608B900F0BBFA0F48032C18D2A9
:1010C000EFF31181202282F3118804EB440200EB3C
:1010D000C20018302CB107604660856000220261B2
:1010E000C260C0F81480C8B280F311880020BDE847
:1010F000F0814FF0FF30FAE7582C00202DE9F04145
:1011000007460B4815460E46007808B900F090FADD
:10111000EFF31184202080F311882A4631463846A7
:1011200000F008F8E1B281F31188BDE8F081000019
:10113000582C002070B50E46144900EB400001EB1E
:10114000C0051446E86A183520B101280FD00228DE
:1011500005D113E0284600F099FAA04201D20024FC
:1011600011E022463146284600F0B6FB0BE0284647
:1011700000F08CFAA042F4D20446F2E73146284649
:1011800000F07DFB0446204670BD0000582C002076
:101190000FB408B504A900916A46039900F003F85A
:1011A00001B05DF814FB2DE9F04198B0064607A8A0
:1011B000029040200025CDE90305CDE90556904673
:1011C0000C4614F8011B002973D0252908D002A869
:1011D00000F036FB05980028F3DA18B0BDE8F0817E
:1011E000002001212278232A1ED02B2A19D02D2A53
:1011F00002D0302A08D102E040F0010001E040F0C6
:101200000200641C0029EDD100222178A1F13003F5
:101210000A2B0CD202EB820201EB4202303A641C30
:10122000F3E740F00400ECE740F00800E9E70023B2
:10123000CFB22E2F0BD114F8011FA1F130070A2FC6
:1012400005D203EB830301EB4303303BF3E76C2947
:101250000DD068290BD0702954D00BDC252916D06D
:10126000582931D063290CD0642913D114E014F823
:10127000011FECE7732934D075291BD0782909D1D7
:1012800022E0D8F80000011DC8F80010017802A87B
:1012900000F0D6FA641C9DE7D8F800100F1DC8F8BE
:1012A00000700968CDE900200A2202A800F0FAF9CE
:1012B000F0E733E0D8F800100F1DC8F80070096897
:1012C000CDE900200A2208E0D8F800100F1DC8F868
:1012D00000700968CDE90020102202A800F046FA4B
:1012E000D8E7D8F80000011DC8F80010076817F803
:1012F000011B0029CED002A800F0A2FA0598002810
:10130000F5DAC7E7D8F80000011DC8F80010016839
:101310000820CDE9000503461022DEE705980028E5
:101320007FF75BAF049820B1024607A93046FFF76C
:10133000E5FEDDE90410084405904EE7DFF8F8B05B
:101340003E4D3F4C4FF0000801264FF4E0374FF47C
:101350007A7941F2883A3BA10020FFF719FFE02398
:101360002A463CA10020FFF713FF4846FFF73EF94D
:10137000FFF7ECF9E021CBF80080CBE902513049CE
:101380002D48FFF745F9226808B13AA100E03FA1D6
:101390000020FFF7FDFE40F6B830FFF727F9C4E95B
:1013A0000157C4E90368E2680023501CE060022092
:1013B0006168FFF78BF930B16268136839A10020CA
:1013C000FFF7E6FE08E06068001D60602069401CD1
:1013D0002061A1688842E6D35046FFF707F9C4E9C7
:1013E0000157C4E9036862681168E068431CE36060
:1013F000814205D0136833A10020FFF7C9FE0DE03C
:10140000136837A10020FFF7C3FE6068001D60600D
:101410002069401C2061A1688842E4D35046FFF750
:10142000E5F8FFF749F933A10020FFF7B1FE484680
:1014300000F08CFB8FE70000900000200000010806
:1014400000000020666C61736820746573740D0A77
:101450000000000065726173655F61646465723AE3
:1014600025782065726173655F706167653A2564F0
:101470000D0A200061646465723A25782045726126
:101480007365204572726F720D0A000061646465B5
:10149000723A25782045726173652046696E6973DA
:1014A000680D0A0061646465723A25782077726974
:1014B0007465206572726F722076616C75653A256D
:1014C000780D0A006572726F2D3E61646465723A30
:1014D00025782076616C75653A25780D0A00000044
:1014E00061646465723A25782076616C75653A2589
:1014F000780D0A00666C6173682074657374206FE0
:101500007665720D0A00000010B5502080F3118836
:10151000BFF34F8FBFF36F8F00F086FF18B1044900
:101520004FF080500860002080F3118810BD00004B
:1015300004ED00E030B58FB028216846FEF744FF87
:1015400014210AA8FEF740FF01210804CDE900108C
:101550000024029402250491CDE907504FF4E010D5
:1015600009906846FFF7C0FA08B172B6FEE70F208F
:10157000CDE90A054FF48060CDE90C4002210AA8AC
:101580000E94FFF7B5F9002801D072B6FEE70FB050
:1015900030BD70470148FFF79EBC000000030020EB
:1015A000F0B502681C4B1D4D1D4E1E4F1E4C4FF0DA
:1015B000804C984209D0A04207D0604505D0A8428F
:1015C00003D0B04201D0B84204D122F0700E4A6874
:1015D00042EA0E02984209D0A04207D0604505D0E9
:1015E000A84203D0B04201D0B84203D122F44075E2
:1015F000CA682A434D6922F080022A4302608A6841
:10160000C2620A688262984201D0A04201D109698F
:10161000016301214161F0BD002C01400004004044
:1016200000080040000C004000340140FEE70000CC
:10163000114803210161416110A1816100F1A801FC
:10164000C1614FF480610162002181624162C16227
:101650000AA2026600F59562426610228266016760
:10166000C1664167084A00BFC1F10F03D35C435410
:10167000491C1029F8D37047582C00205465726D0E
:10168000696E616C00000000E82500080269C1680D
:101690008A4203D88068401A104400E0501A401E65
:1016A000704700002DE9FC5F0E008146DDE90C4724
:1016B000C6F1000098469346824600D408460125AC
:1016C00003E000BF90FBFBF06D1C5845FADAA8451B
:1016D00000D9454624B1002E01DB780700D5641EF1
:1016E000B80702D5B8F1000F0FD0F8070DD164B1DB
:1016F000A5420AD220214846641E00F0A1F8D9F87C
:101700000C000028F3DABDE8FC9FD9F80C00002893
:10171000F9DB002E02DA56462D2102E0780707D5C4
:101720002B21484600F08CF8D9F80C000028EADBA1
:1017300007F0030002280FD1B8F1000F0CD15CB103
:10174000A54209D230214846641E00F079F8D9F844
:101750000C000028F3DAD6E7CDE9004743465A46A5
:101760003146484600F002F8CDE700002DE9F84F79
:101770008246DDE90A4B0126984691460D46084609
:10178000374602E0B0FBF9F07F1C4845FAD2B84575
:1017900000D947465FEACB7017D1B4B15FEA8B70CE
:1017A00002D5B8F1000F02D0202000900BE03020CD
:1017B000FBE75046641E009900F042F8DAF80C008E
:1017C000002838DB0CB1A742F3D3DAF80C0000286C
:1017D00031DB00BFB8F1010F02D9A8F1010803E025
:1017E000B5FBF6F0484502D306FB09F6F2E7DFF851
:1017F0004C8000BFB5FBF6F000FB165518F8001042
:10180000504600F01DF8DAF80C00002803DBB6FBA8
:10181000F9F6002EEED15FEACB700CD0002C0AD086
:10182000A74208D220215046641E00F009F8DAF8D9
:101830000C000028F2DABDE8F88F0000F925000856
:1018400010B50446D4E90130421C934205D3236805
:101850001954A260E068401CE060D4E901028242B1
:1018600009D121682069FFF749FCA168884203D0AB
:101870004FF0FF30E06010BD0020A06010BD2DE9EA
:10188000F047C4681746894606464FF0000830699D
:10189000A04201D9051B02E0B168201A0D1AB068F8
:1018A0006D1E001BA84200D80546BD4200D33D4630
:1018B00070682A4620444946FEF707FDB0687F1B42
:1018C0002C44A844A944A04200D10024F460002F75
:1018D000DDD14046BDE8F0872DE9F0410446884659
:1018E000D4E90207C51BE168606816460844B542A2
:1018F00006D94146FEF7E9FCB819E060BDE8F08181
:101900002A464146FEF7E1FC761B08EB050132460C
:101910006068FEF7DAFCE660F0E70907090E0028C8
:1019200004DB00F1E02080F80014704700F00F00A5
:1019300000F1E02080F8141D7047704700207047C8
:1019400008B5FEF725FFFFF7F5FDFFF799FB00232C
:10195000022000901A4619461846FFF7A1FBFFF730
:101960007BFB00F0FAF841A10020FFF711FC434D8A
:10197000E0232A4642A10020FFF70AFC4FF47A70C8
:10198000FEF734FEFEF7E2FE45484FF00008E02186
:10199000C0F80080C0E902514249FEF739FE414CCF
:1019A000226808B140A100E045A10020FFF7F0FB4C
:1019B00040F6B830FEF71AFE0126C4E903684FF47A
:1019C000E037C4E90157C246DFF80C914FF0340804
:1019D0004CF2503BC9F80C80E2680023501CE060D8
:1019E00002206168FEF772FE30B1626813683BA1A5
:1019F0000020FFF7CDFB0BE05846FEF7CDFD6068F9
:101A0000001D60602069401C2061A1688842E1D30C
:101A100041F288384046FEF7E9FDC4E90157C4E9C0
:101A2000036A62681368E068411CE160834205D084
:101A3000136832A10020FFF7ABFB0DE0136836A15D
:101A40000020FFF7A5FB6068001D60602069401C56
:101A50002061A1688842E4D34046FEF7C7FDFEF747
:101A60002BFE32A10020FFF793FBFEE7666C61734B
:101A70006820746573740D0A0000000000000108FE
:101A800065726173655F61646465723A257820658B
:101A9000726173655F706167653A25640D0A2000A5
:101AA000900000200000002061646465723A25788F
:101AB000204572617365204572726F720D0A0000D5
:101AC00061646465723A25782045726173652046C9
:101AD000696E6973680D0A000020024061646465E4
:101AE000723A2578207772697465206572726F7218
:101AF0002076616C75653A25780D0A006572726F03
:101B00002D3E61646465723A25782076616C756556
:101B10003A25780D0A00000061646465723A257800
:101B20002076616C75653A25780D0A00666C6173E4
:101B3000682074657374206F7665720D0A0000006A
:101B400001460020842900D0C81C704710B500B998
:101B5000012000F01DFB002010BD10B500F03EFB81
:101B6000002010BD7FB50D4604464169B0F908005C
:101B700081B1A16971B1FFF7E3FFD4E905128DE8E6
:101B80000700D4E900102B46226900F022FC0390E4
:101B900004B070BDFFF7D4FF03A9CDE90001208A8E
:101BA0002B4682B2D4E9001000F0E6FB012801D0F8
:101BB0000020EDE70398EBE72DE9F041184C0F46C4
:101BC000054666692068001D00F01EFA38B92068D5
:101BD00090F82C1001208840A1698143A161681C04
:101BE00007D137B12168BDE8F0410E48091D00F06A
:101BF0004FBA20683544B5424560216805D2A068D7
:101C0000BDE8F041091D00F02BBA6068091D00F025
:101C100027FA206B854200D22563BDE8F0810000E1
:101C200028000020440400202DE9F041054600F082
:101C30003BFA2E4C2069401C206120682C4F10B1CB
:101C4000E06940B32DE025602069012829D10026F4
:101C500006EB860007EB800000F0F4F9761C072EF7
:101C6000F6D323488C3000F0EDF92148A03000F085
:101C7000E9F91F48B43000F0E5F91D48C83000F01C
:101C8000E1F91B48DC3000F0DDF919488C30606068
:101C90001430A06005E02068E96AC06A884200D874
:101CA0002560E06A401CE0626864E96A0120A2697C
:101CB00088401043A06101EB810007EB8000291DE3
:101CC00000F0E6F900F010FAE06900280CD0206876
:101CD000E96AC06A884207D206494FF0805008601E
:101CE000BFF34F8FBFF36F8FBDE8F0812800002056
:101CF0006803002004ED00E010B5044690F85D0094
:101D000058B101280CD002280FD0502080F3118840
:101D1000BFF34F8FBFF36F8FFEE7206B00F0F8F932
:101D20002046BDE8104000F0F3B910BD10484FF454
:101D30002051420706D0C01D0D4920F00700411A6E
:101D4000C1F520510B4A00230144C2E900030839C0
:101D5000103A21F0070111604B600B600B1AC0E9CB
:101D6000001393604FF000405360D0607047000054
:101D7000580400207C000020144E154CA6F1C80722
:101D80004FF08058DFF84C9012E000BF00F08CF963
:101D9000F068C568281D00F037F92069401E2061F1
:101DA000E068401EE06000F09FF92846FFF7A4FFBE
:101DB000E0680028EAD138680128F9D9C9F800801C
:101DC000BFF34F8FBFF36F8FF2E7000030040020A6
:101DD0002800002004ED00E02DE9F0470E46DDE983
:101DE00009841746824691009946089DA522206BDA
:101DF000FEF7E2FA6FF00301206B01EB8701084464
:101E000020F00707780707D0502080F31188BFF330
:101E10004F8FBFF36F8FFEE72218315C82F83410CA
:101E2000315C11B1401C1028F6D3002684F84360C1
:101E3000072D00D30625E562C4E91356201D00F0E6
:101E40000CF904F1180000F008F92461C5F107004D
:101E50006462A0616665A66584F85C604A46514686
:101E6000384600F0BFF82060B8F1000F01D0C8F884
:101E70000040BDE8F087000030B5114900E0114690
:101E80000A688242FBD34B685C18844203D14068E5
:101E900018444860084643681C18944209D1084C0D
:101EA000103C2468A24209D052681A4442600A6871
:101EB00012680260814200D0086030BD0460F9E71A
:101EC0007C00002006484168096829B14168C9685A
:101ED000C9684968016370474FF0FF31FAE70000B5
:101EE0002800002008484068401C4FF0500080F354
:101EF000118804D0BFF34F8FBFF36F8FFEE7BFF39E
:101F00004F8FBFF36F8FFEE7840000202DE9F04173
:101F10000546002700F09AF9314E306808B9FFF7FE
:101F200005FFF06805424BD1C5B3083568070ED0F0
:101F300005F00700C0F108000544680707D05020ED
:101F400080F31188BFF34F8FBFF36F8FFEE72DB380
:101F50007068854234D82248103001460C6801E090
:101F600020460C466168A94202D221680029F7D1B7
:101F700031688C4224D007682168016060680837A6
:101F8000411B10290FD96019420708D0502080F357
:101F90001188BFF34F8FBFF36F8FFEE710E04160F2
:101FA0006560FFF769FF61687068401A7060B26829
:101FB000904200D2B060F06801430020C4E9000103
:101FC00000F096FA780707D0502080F31188BFF30D
:101FD0004F8FBFF36F8FFEE73846BDE8F0810000FA
:101FE0006C00002010B5031F4FF080741C601B1F95
:101FF00021F001011960191F024B0B6014394038A0
:102000000A6010BDE51E0008D0E9013201699A603E
:10201000D0E901235A604A68824201D182684A604D
:10202000002202610868401E0860086870470000CE
:10203000034B036003F1600008608020106070476C
:10204000A000002000F108014FF0FF32C0E90112AA
:10205000C16001610021016070470021016170478A
:1020600030B50B685A1C02D000F1080202E0026988
:1020700004E02246546825689D42FAD953684B60B3
:1020800099608A60516008610168491C016030BD37
:1020900042684A6093688B609368596091600861F8
:1020A0000168491C01607047502080F31188BFF31C
:1020B0004F8FBFF36F8F0A494868401C4860012862
:1020C0000CD10848006810F0FF0F07D0502080F3B3
:1020D0001188BFF34F8FBFF36F8FFEE7704700008B
:1020E0008400002004ED00E00849486828B1401E43
:1020F000486001D180F311887047502080F3118827
:10210000BFF34F8FBFF36F8FFEE700008400002006
:1021100070B5002827D0144DA0F108046168E86864
:10212000014207D1502080F31188BFF34F8FBFF3D6
:102130006F8FFEE722683AB1502080F31188BFF319
:102140004F8FBFF36F8FFEE78143616000F07EF831
:1021500060686968084468602046FFF78DFEBDE846
:10216000704000F0C5B970BD6C0000204FF0E02059
:1021700000210161816105494FF47A720968B1FB60
:10218000F2F1491E416107210161704724000020DE
:1021900010B5020014D00F48806B38B1502080F386
:1021A0001188BFF34F8FBFF36F8FFEE700F04EF83B
:1021B00000211046FFF700FD00F09AF9002807D132
:1021C00005494FF080500860BFF34F8FBFF36F8F0A
:1021D00010BD00002800002004ED00E010B586B01E
:1021E0000024039405AA04A903A80494FFF720FF80
:1021F000DDE903010094CDE9011000230FA111488E
:10220000059A00F0E6F810490028486313D05020E2
:1022100080F31188BFF34F8FBFF36F8F4FF0FF3004
:1022200008630120C8614C61FFF787FB06B0BDE879
:10223000104000F04DB806B010BD000049444C45B8
:1022400000000000791D0008280000200248816B72
:10225000491C8163704700002800002010B51A4C0B
:10226000A06B10B10120606210BD00206062FFF71A
:1022700065FB2064E26B904204D92168821A4B6DA1
:102280001A444A65E063A0691049B0FA80F0C0F1D1
:102290001F0000EB800051F820206AB101EB8000A4
:1022A00000F10802416849684160914201D14968E2
:1022B0004160C868206010BD502080F31188BFF3D2
:1022C0004F8FBFF36F8FFEE72800002068030020C8
:1022D0001CB5264908780190FF20087008788DF811
:1022E00000009DF800009DF8002000F0F0009042F2
:1022F00007D0502080F31188BFF34F8FBFF36F8F4B
:10230000FEE79DF800001A4B00F0500018700720FF
:10231000986005E09DF8002052008DF80020401ED6
:102320009DF800201206F5D49860032807D05020AD
:1023300080F31188BFF34F8FBFF36F8FFEE74FF429
:1023400040709860019808700A48016841F4700173
:102350000160016841F070410160FFF707FF002054
:102360005860FDF745FF00201CBD000000E400E0C0
:102370008400002020ED00E02DE9FF5F8346DDE9C9
:102380000E87994616468A469000FFF7BFFD050066
:102390001CD06020FFF7BAFD040014D00020256394
:1023A00084F85D00CDE90240CDE900874B46324616
:1023B00051465846FFF710FD2046FFF735FC012037
:1023C00004B0BDE8F09F2846FFF7A2FE4FF0FF30B3
:1023D000F6E7F0B585B0DDE90B640A9DA6B1DCB186
:1023E000602700972663022684F85D60002604AF0C
:1023F000CDE90246CDE90057FFF7EEFC2046FFF796
:1024000013FC049805B0F0BD502080F31188BFF391
:102410004F8FBFF36F8FFEE7502080F31188BFF31B
:102420004F8FBFF36F8FFEE72DE9F0412E4C002751
:10243000A06B40B1206A401C2062606A00B1012795
:102440003846BDE8F0816669761C666113D1606824
:10245000006838B1502080F31188BFF34F8FBFF36D
:102460006F8FFEE76068A1686160A060A06A401C91
:10247000A062FFF727FD206BDFF87080864209D34A
:102480006068006880B16068C068C5686868864236
:102490000DD220632068C06A00EB800158F821004B
:1024A0000128CAD90127C8E74FF0FF30F1E7281DFE
:1024B000FFF7AAFDA86A18B105F11800FFF7A4FDFF
:1024C000E86A0121A26981401143A16100EB80010A
:1024D00008EB8100291DFFF7DBFDE86A2168C96A66
:1024E0008842CDD30127CBE72800002068030020D5
:1024F0002DE9F0472C4D00242746A86B38B1FFF793
:10250000D3FDA86B401EA863A86B40B146E05020E5
:1025100080F31188BFF34F8FBFF36F8FFEE72969F8
:10252000224E0120D1B3A6F1B40980463068E8B14B
:10253000F068C46804F11800FFF766FD201DFFF77E
:1025400063FDE06AAA6908FA00F11143A96100EB92
:10255000800109EB8100211DFFF79AFDE06A2968DF
:10256000C96A8842E2D3C5F82480DFE70CB1FFF7DF
:10257000A9FC2C6A44B14646FFF756FF00B16E62D3
:10258000641EF9D100202862686A38B10849012721
:1025900038070860BFF34F8FBFF36F8FFFF7A4FDBD
:1025A0003846BDE8F0870000280000201C04002009
:1025B00004ED00E00C2600083D13000800000000B8
:1025C000000000008000000000000000000000008B
:1025D00000000000000000000102030406070809D3
:1025E0000000000001020304000000000000545439
:1025F0005220524547474553003031323334353647
:1026000037383941424344454600000064656661FD
:10261000756C745461736B0038260008000000204C
:10262000900000006C010008C826000890000020FF
:10263000E0360000880100080000000000000000F3
:102640000000000001000000000000000000000089
:102650000100000010000000000000000024F40051
:10266000000000000000000000000000000000006A
:10267000000000000000000000000000000000005A
:10268000000000000000000000000000000000004A
:10269000000000000000000000000000000000003A
:1026A000000000000000000000000000000000002A
:1026B000000000000000000000000000000000001A
:0826C000AAAAAAAA000000006A
:0400000508000131BD
:00000001FF
