:020000040800F2
:10000000480B0020CD010008990F00086D0F000873
:10001000950F0008E7030008A71300080000000080
:100020000000000000000000000000003513000880
:10003000EB030008000000009D0F000837130008C4
:10004000E7010008E7010008E7010008E7010008F0
:10005000E7010008E7010008E7010008E7010008E0
:10006000E7010008E7010008E7010008E7010008D0
:10007000E7010008E7010008E7010008E7010008C0
:10008000E7010008E7010008E7010008E7010008B0
:10009000E7010008E7010008E7010008E7010008A0
:1000A000E7010008E7010008E7010008E701000890
:1000B000E7010008E7010008E7010008E701000880
:1000C000E7010008E7010008E7010008E701000870
:1000D000E7010008E7010008E7010008E701000860
:1000E000E7010008E7010008E7010008E701000850
:1000F000E7010008E7010008E7010008E701000840
:10010000E7010008E7010008E7010008E70100082F
:10011000E7010008E7010008E7010008E70100081F
:10012000E7010008E7010008E7010008E70100080F
:1001300000F002F800F03AF80AA090E8000C8244BF
:100140008344AAF10107DA4501D100F02FF8AFF29C
:10015000090EBAE80F0013F0010F18BFFB1A43F0A5
:10016000010318471418000034180000103A24BF87
:1001700078C878C1FAD8520724BF30C830C144BF0C
:1001800004680C607047000000230024002500264E
:10019000103A28BF78C1FBD8520728BF30C148BFEA
:1001A0000B6070471FB51FBD10B510BD00F0E2F821
:1001B0001146FFF7F7FF01F0CBFA00F000F903B4A6
:1001C000FFF7F2FF03BC00F007F900000948804781
:1001D00009480047FEE7FEE7FEE7FEE7FEE7FEE729
:1001E000FEE7FEE7FEE7FEE704480549054A064B41
:1001F00070470000A51300083101000848050020E1
:10020000480B00204807002048070020B2F12003D7
:100210000AD5C2F1200320FA02F001FA03F321FA11
:1002200002F140EA0300704721FA03F04FF00001A9
:100230007047032A40F2308010F0030C00F0158064
:1002400011F8013BBCF1020F624498BF11F801CBD9
:1002500000F8013B38BF11F8013BA2F1040298BF3E
:1002600000F801CB38BF00F8013B11F0030300F0A8
:100270004F80083AC0F0088051F8043B083A51F822
:1002800004CBA0E80810F5E7121D5CBF51F8043B51
:1002900040F8043BAFF30080D20724BF11F8013BC4
:1002A00011F801CB48BF11F8012B24BF00F8013B26
:1002B00000F801CB48BF00F8012B70474FF0000257
:1002C00000B5134694469646203922BFA0E80C504C
:1002D000A0E80C50B1F12001BFF4F7AF090728BF27
:1002E000A0E80C5048BF0CC05DF804EB890028BFA3
:1002F00040F8042B08BF704748BF20F8022B11F0CC
:10030000804F18BF00F8012B704770477047704747
:1003100010B5203AC0F00B80B1E81850203AA0E8A0
:100320001850B1E81850A0E81850BFF4F5AF5FEAD4
:10033000027C24BFB1E81850A0E8185044BF18C987
:1003400018C0BDE810405FEA827C24BF51F8043B2E
:1003500040F8043B08BF7047D20728BF31F8023B82
:1003600048BF11F8012B28BF20F8023B48BF00F816
:10037000012B7047754600F02BF8AE460500694624
:10038000534620F00700854618B020B5FFF72CFF34
:10039000BDE820404FF000064FF000074FF0000886
:1003A0004FF0000B21F00701AC46ACE8C009ACE807
:1003B000C009ACE8C009ACE8C0098D46704710B56B
:1003C0000446AFF300802046BDE81040FFF7F7BEBB
:1003D00000487047E804002001491820ABBEFEE742
:1003E00026000200704700BFFEE7704772B600BFEC
:1003F000FEE700000021074AD1610749096941F081
:100400000401054A11611146096941F04001116179
:100410007047000010000020002002400021074A21
:10042000D1610749096941F00201054A116111468C
:100430004861096941F040011161704710000020D6
:10044000002002400022054BDA61054A126942F0A1
:100450000102034B1A610180704700001000002068
:100460000020024000201E49C96801F0100139B186
:100470001C49C96941F002011A4AD16140F01000DB
:100480001749C96801F0040139B11649C96941F039
:100490000101144AD16140F004001149C96901F019
:1004A000010169B10F49C96941F004010D4AD161E7
:1004B00000BF0B49C96921F00101094AD16100BFA0
:1004C00000BF40F20111884206D10549C96921F0F7
:1004D0000101034AD16101E00149C86000BF7047D2
:1004E000002002401000002070B5044600F01AF908
:1004F000054609E0601C38B124B100F013F9401B37
:10050000A04201D9032070BD1248C06800F001006C
:100510000028EFD10F48C06800F0200020B100BFD4
:1005200020200C49C86000BF0A48C06800F01000D5
:1005300048B90848C06900F0010020B90548C06802
:1005400000F0040018B1FFF78DFF0120DBE7002069
:10055000D9E700000020024070B5044600F0E2F840
:1005600006462546681C10B104480078054400BFC3
:1005700000F0D8F8801BA842FAD370BD0800002014
:100580002DE9F04104460E460127002500BF26480C
:10059000007E012802D10220BDE8F081012022491D
:1005A000087600BF2068022813D14CF25030FFF7C4
:1005B0009BFF90BB0120FFF71DFF4CF25030FFF76F
:1005C00093FF07461948006920F0040017490861A5
:1005D00023E04CF25030FFF787FFF0B94FF0FF30C7
:1005E0003060A56812E02846FFF718FF4CF2503043
:1005F000FFF77AFF07460D48006920F002000B491B
:1006000008610FB1356007E005F50065D4E9021017
:1006100001EBC020A842E6D800BF00BF002002497D
:10062000087600BF3846B7E71000002000200240DF
:100630000348006940F080000149086100207047CC
:10064000002002402DE9FE4F05468B46174698468E
:10065000012600240020029000BF2448007E0128CB
:1006600002D10220BDE8FE8F01202049087600BF9C
:100670004CF25030FFF738FF064686BB012D02D101
:100680000120029006E0022D02D10220029001E03A
:100690000420029000241EE02201B946C2464846CA
:1006A0005146FFF7B3FD80B20190022000FB04B079
:1006B00000900199FFF7C6FE4CF25030FFF714FF8F
:1006C00006460B48006920F001000949086106B19F
:1006D00004E0601CC4B202988442DDDB00BF00BFAE
:1006E00000200249087600BF3046BBE7100000201A
:1006F0000020024000200849096901F0800151B141
:100700000649054A5160064951601146096901F0E0
:10071000800101B10120704700200240230167459C
:10072000AB89EFCD01480068704700000000002051
:100730000348006803490978084401490860704784
:10074000000000200800002010B50848006840F0B4
:10075000100006490860032000F098F80F2000F010
:1007600007F800F02BF8002010BD00000020024028
:1007700070B504460E4800784FF47A71B1FBF0F082
:100780000C490968B1FBF0F5284600F0D5FB08B12B
:10079000012070BD102C07D200222146501E00F00F
:1007A00037F80548046001E00120F2E70020F0E797
:1007B000080000200C0000200400002008B500BF45
:1007C0001148806940F001000F498861084680693E
:1007D00000F00100009000BF00BF00BF0846C069E4
:1007E00040F08050C8610846C06900F08050009019
:1007F00000BF00BF00BF0549486820F0E06040F03E
:100800000070486000BF08BD0010024000000140B9
:100810002DE9F05F80460D461646002700F07CFF6C
:10082000074639462A46334601F00700C0F1070A59
:10083000BAF1040F02D94FF0040A01E0C0F1070A2F
:10084000D14600F1040ABAF1070F02D24FF0000AB4
:1008500001E0A0F1030AD4464FF0010A0AFA09FAAE
:10086000AAF1010A0AEA020A0AFA0CFA4FF0010B8D
:100870000BFA0CFBABF1010B0BEA030B4AEA0B047E
:100880002146404600F050FFBDE8F09F00BF00F059
:100890000702064B19684FF6FF031940044B0B4340
:1008A00043EA0221014B196000BF70470CED00E0E4
:1008B0000000FA0570B504460D460CB9012070BD64
:1008C0005A48006800F00700A8420ED25748006856
:1008D00020F007002843554908600846006800F0EA
:1008E0000700A84201D00120E9E7207800F00200CB
:1008F00002281DD1207800F00400042805D14C48BE
:10090000406840F4E0604A494860207800F0080000
:10091000082805D14648406840F460504449486082
:100920004348406820F0F000A1680843404948600F
:10093000207800F0010078B36068012806D13C48B7
:10094000006800F4003090B90120B8E76068022820
:1009500006D13748006800F0007040B90120AEE7CA
:100960003348006800F0020008B90120A7E73048CA
:10097000406820F00300616808432D494860FFF794
:10098000D1FE064609E0FFF7CDFE801B41F288311B
:10099000884202D9032092E707E02548406800F02A
:1009A0000C006168B0EB810FEDD12048006800F0C9
:1009B0000700A8420ED91D48006820F00700284310
:1009C0001A4908600846006800F00700A84201D0F4
:1009D000012074E7207800F00400042807D11448AF
:1009E000406820F4E060E1680843114948602078DD
:1009F00000F00800082808D10D48406820F4605035
:100A0000216940EAC1000A49486000F019F8084924
:100A10004968C1F30311074A515CC84006490860A0
:100A200006480068FFF7A4FE002048E700200240C7
:100A3000001002403C1900080C00002004000020B7
:100A4000F0B585B00FF26C0C9CE8E01001A8A0E8AE
:100A5000E0101CA52D680095002100220023002431
:100A60000020194D696801F00C05F5B1042D02D084
:100A7000082D19D101E0154819E001ADC1F38346F5
:100A8000AC5D01F4803555B10F4D6D68C5F340453F
:100A90001DF805200D4D6543B5FBF2F302E00C4D4A
:100AA00004FB05F3184602E000BF084800BF00BF82
:100AB00005B0F0BD02030405060708090A0B0C0D7A
:100AC0000E0F1010010200000010024000127A0008
:100AD00000093D00F8B504460CB90120F8BD2078A6
:100AE00000F00100002878D0F848406800F00C00C1
:100AF00004280CD0F548406800F00C00082811D1FB
:100B0000F248406800F48030B0F5803F0AD1EF48E9
:100B1000006800F4003000285FD0606800285CD1D5
:100B20000120DBE700BF6068B0F5803F06D1E748F1
:100B3000006840F48030E549086028E0606858B9F2
:100B4000E248006820F48030E04908600846006808
:100B500020F4802008601AE06068B0F5A02F0BD167
:100B6000DA48006840F48020D849086008460068E8
:100B700040F4803008600AE0D448006820F48030F7
:100B8000D24908600846006820F48020086000BF51
:100B9000606888B1FFF7C6FD054606E0FFF7C2FDB5
:100BA000401B642801D9032098E7C848006800F476
:100BB00000300028F2D010E0FFF7B4FD054606E053
:100BC000FFF7B0FD401B642801D9032086E7BF482A
:100BD000006800F400300028F2D1207800F0020014
:100BE000022857D1B948406800F00C0050B1B7480E
:100BF000406800F00C00082818D1B448406800F4A0
:100C0000803098B9B148006800F0020020B1206936
:100C1000012801D0012061E7AC48006820F0F8000D
:100C2000616940EAC100A949086033E02069E8B180
:100C30000120A7490860FFF775FD054606E0FFF7AC
:100C400071FD401B022801D9032047E79F48006837
:100C500000F002000028F2D09C48006820F0F80064
:100C6000616940EAC1009949086013E00020984991
:100C70000860FFF757FD054606E0FFF753FD401BF0
:100C8000022801D9032029E79048006800F00200FB
:100C90000028F2D1207800F0080008282DD1A069A2
:100CA000B8B101208B490860FFF73CFD054606E01E
:100CB000FFF738FD401B022801D903200EE78348C7
:100CC000406A00F002000028F2D0012000F068F92C
:100CD00013E000207F490860FFF724FD054606E089
:100CE000FFF720FD401B022801D90320F6E67748D4
:100CF000406A00F002000028F2D1207800F00400E1
:100D0000042873D100277148C06900F0805070B981
:100D100000BF6E48C06940F080506C49C861084609
:100D2000C06900F08050009000BF00BF01276A48F2
:100D3000006800F48070B0B96748006840F48070C3
:100D400065490860FFF7EEFC054606E0FFF7EAFCA0
:100D5000401B642801D90320C0E65F48006800F406
:100D600080700028F2D000BFE068012806D1574803
:100D7000006A40F001005549086227E0E06858B970
:100D80005248006A20F00100504908620846006A93
:100D900020F00400086219E0E06805280BD14B48F8
:100DA000006A40F00400494908620846006A40F0C1
:100DB000010008620AE04548006A20F0010043494A
:100DC00008620846006A20F00400086200BFE0687C
:100DD000A0B1FFF7A7FC054609E0FFF7A3FC401B05
:100DE00041F28831884202D9032077E622E0374871
:100DF000006A00F002000028EFD012E0FFF792FC3A
:100E0000054608E0FFF78EFC401B41F2883188421E
:100E100001D9032062E62D48006A00F00200002894
:100E2000F0D1012F05D12948C06920F08050274911
:100E3000C86100BFE069C8B32448406800F00C00F6
:100E4000082860D0E069022848D1002020490866BF
:100E5000FFF768FC054606E0FFF764FC401B02282C
:100E600001D903203AE61948006800F00070002814
:100E7000F2D1206AB0F5803F07D11448406820F4D1
:100E80000030A168084311494860D4E908010843CB
:100E90000E49496821F4741108430C494860012047
:100EA0000B490866FFF73EFC054607E03DE0FFF70B
:100EB00039FC401B022801D903200FE603480068D3
:100EC00000F000700028F2D02FE000000010024077
:100ED0000000424280044242007000400020144959
:100EE0000866FFF71FFC054606E0FFF71BFC401BEA
:100EF000022801D90320F1E50E48006800F00070D7
:100F00000028F2D111E0E069012800D1E6E50948A6
:100F1000466806F48031206A814204D106F47011DB
:100F2000606A814201D00120D8E50020D6E50000AA
:100F3000000042420010024070B504462546681E7B
:100F4000B0F1807F01D301200FE0681E4FF0E02157
:100F500048610F214FF0FF3000F0E6FB00204FF01A
:100F6000E021886107200861002070BD00BFFEE716
:100F700008B500BF0648806940F004000449886154
:100F80000846806900F00400009000BF00BF08BD63
:100F90000010024000BFFEE700BFFEE77047000000
:100FA00008B508490968C9084FF47A72B1FBF2F133
:100FB0004143009100BF00BF00994A1E00920029E2
:100FC000F9D108BD0C0000202DE9F05F05460F4661
:100FD00090469946DFF860B000BF9BF8000008B962
:100FE00000F0E4F900BFDFF850A0032D1FD2EFF3AB
:100FF00011810846202181F3118800BF00BF05EB55
:1010000045020AF1180101EBC2043DB12760C4F8A2
:101010000480C4F8089000212161E1600A996161AF
:10102000C1B281F3118800BF00BF002601E04FF07C
:10103000FF363046BDE8F09F300000202DE9F0413A
:1010400004460D4616460E4F00BF387808B900F02A
:10105000ADF900BFEFF311800746202080F311881F
:1010600000BF00BF32462946204600F00BF88046FC
:10107000F8B280F3118800BF00BF4046BDE8F081A0
:10108000300000202DE9F047074688461646C24644
:1010900007EB47011B4800EBC109D9F8140020B148
:1010A000012811D0022826D11EE0484600F0B0F9F0
:1010B0000546B54201D2002405E034463246514689
:1010C000484600F0FCFA18E0484600F0A1F9054651
:1010D000B54201D2284600E0304604462246514639
:1010E000484600F0ECFA08E032465146484600F027
:1010F000ABFA044601E0002400BF00BF2046BDE873
:10110000F0870000480000200FB438B5044606A858
:1011100000906A462046059900F007F80546002031
:101120000090284638BC5DF814FB2DE9F04F99B0CB
:1011300082460D46144603A81490402015900020C6
:101140001690CDF860A0179000BF2E786D1C06B9E0
:10115000DDE0252E79D100274FF0010900BF2E7860
:10116000232E12D02B2E0CD02D2E02D0302E10D1AB
:1011700003E047F001076D1C0EE047F002076D1C0D
:101180000AE047F004076D1C06E047F008076D1CF5
:1011900002E04FF0000900BF00BFB9F1000FDED13F
:1011A0004FF0000800BF2E78302E01DB392E00DD15
:1011B00007E06D1CA6F1300008EB880100EB410848
:1011C000F1E700BF002013902E782E2E12D16D1C57
:1011D00000BF2E78302E01DB392E00DD09E06D1CBA
:1011E000A6F13000139901EB810100EB410013904F
:1011F000EFE700BF2E7800BF6C2E01D0682E02D121
:101200006D1C2E7800E000E0F6E700BF702E5DD088
:1012100008DC252E6AD0582E35D0632E09D0642ED6
:1012200069D113E0732E3CD0752E1DD0782E62D17B
:1012300028E02168081D2060D1F8009009F0FF0B1C
:10124000594614A800F0DEF956E058E02168081D60
:101250002060D1F80090CDE900870A22494614A801
:10126000139B00F0E3F847E02168081D2060D1F8E7
:101270000090CDE900870A22494614A8139B00F08C
:101280004BF939E000BF2168081D2060D1F80090BB
:10129000CDE900871022494614A8139B00F03CF9C1
:1012A0002AE02168081D2060D1F800B000BF9BF83B
:1012B00000600BF1010B06B906E0314614A800F0FE
:1012C000A1F917980028F2DA00BF15E02168081D7F
:1012D0002060D1F80090002008210B461022CDE9B3
:1012E0000010494614A800F017F905E0252114A8BC
:1012F00000F088F900E000BF00BF6D1C03E031463C
:1013000014A800F07FF917980028BFF61EAF00BFA1
:10131000179800280ADD169820B103A95046169A9E
:10132000FFF78CFEDDE9161008441790179819B0E6
:10133000BDE8F08F704710B5FFF7FAF910BD00B5A2
:101340008FB0282105A8FEF7B9FF14216846FEF7E3
:10135000B5FF0120059000040690002007900120B1
:10136000099002200C90C1030D914FF4E0110E91F1
:1013700005A8FFF7AFFB08B1FFF738F80F20009082
:1013800002200190002002904FF480600390002022
:10139000049002216846FFF78DFA08B1FFF726F89E
:1013A0000FB000BD704700BFFEE7000011480322E8
:1013B0000261426110A28261124BC3614FF48063EB
:1013C0000362002383624362C3620BA202660E4B78
:1013D00043661023836600230367C36643670021C7
:1013E00005E0C1F10F02094B9A5C4254491C1029D7
:1013F000F7D37047300000205465726D696E616CE0
:1014000000000000D8000020D80400205419000873
:1014100010B501460A69CB689A4204D88C68641EEC
:10142000E41AA01801E0D41A601E10BD2DE9FC5F7B
:1014300006460F4692469846DDE90C45002F01DA34
:10144000784200E0384683464FF0010903E09BFBF9
:10145000FAFB09F10109D345F9DAC84500D9C146BB
:1014600034B1002F03DB05F00400042800D1641E12
:1014700005F0020010B1B8F1000F11D005F0010025
:1014800070B96CB108E0641E2021304600F0BAF853
:10149000F068002800DA02E00CB1A145F3D300BFE8
:1014A000F068002836DB002F05DA7F422D21304618
:1014B00000F0A8F807E005F00400042803D12B2170
:1014C000304600F09FF8F068002823DB05F00200AA
:1014D000022814D105F0010088B9B8F1000F0ED12F
:1014E0006CB108E0641E3021304600F08BF8F068E3
:1014F000002800DA02E00CB1A145F3D300BFF06888
:10150000002807DB4346524639463046CDE90045C0
:1015100000F002F8BDE8FC9F2DE9FC5F804689469B
:1015200015461E460C9CCDF804900127BB4605E0ED
:101530000198B0FBF5F001900BF1010B0198A84266
:10154000F6D25E4500D9B3460D9800F00100D0B93F
:10155000CCB10D9800F00200022803D116B930205A
:10156000009001E02020009009E0641E40460099B0
:1015700000F048F8D8F80C00002800DA02E00CB1BE
:10158000A345F2D300BFD8F80C00002835DB09E0F2
:10159000012E01D9761E04E0B9FBF7FAAA4500D264
:1015A00001E06F43F4E700BF00BFB9FBF7FA0AFBA5
:1015B0001799134810F80A10404600F023F8D8F89D
:1015C0000C00002800DA03E0B7FBF5F7002FECD1A0
:1015D00000BF0D9800F0010078B174B109E0641EFD
:1015E0002021404600F00EF8D8F80C00002800DA60
:1015F00002E00CB1A345F2D300BFBDE8FC9F0000A0
:101600006519000870B504460E46A568681C616837
:10161000814206D320684655681CA060E068401CE3
:10162000E060D4E9011088420DD1A26821682069E8
:10163000FFF704FDA168884203D04FF0FF30E0605F
:1016400001E00020A06070BD2DE9F05F04468946EE
:1016500017464FF0000AE56800BFD4F81080A8458F
:1016600003D9A8EB0500461E04E0A5EB0800401CCA
:10167000A1680E1AA068401BB04201D9304601E0B3
:10168000A068401B0646BE4201D2304600E0384604
:101690000646606800EB050B324649465846FEF7A1
:1016A000C8FDB244B144BF1B3544A068A84200D174
:1016B0000025E560002FD0D15046BDE8F09F2DE910
:1016C000F047044689461546E668A068871BAF4286
:1016D0000AD9606800EB060A2A4649465046FEF7DA
:1016E000A8FD7019E06014E0B846606800EB060AD7
:1016F000424649465046FEF79CFDA5EB0708D4F844
:1017000004A009EB070142465046FEF792FDC4F8DB
:101710000C80BDE8F087000002480068C0F302209A
:10172000704700000CED00E010B5002804DB0A074C
:10173000130E054A135406E00A07140E034A00F07C
:101740000F031B1FD45410BD00E400E018ED00E0AF
:1017500086B00020019000BF002400BF00260127B2
:101760000025FEF7F1FFFFF7EAFDFFF701FC02207D
:1017700000231A46194600901846FFF725FC76E02C
:101780003BA10020FFF7C0FCFA233D4A3DA1002009
:10179000FFF7BAFC4FF47A70FEF7DEFEFEF7AAFF01
:1017A0000020029036480490FA20059001A902A872
:1017B000FEF7E6FE28B13BA10020019AFFF7A4FC4A
:1017C00004E03EA10020019AFFF79EFC40F6B830ED
:1017D000FEF7C2FE01274FF4FA360025284C16E02A
:1017E00000BF34203B49C86000BFBC467F1C624636
:1017F000002321460220FEF725FF30B12368224650
:1018000035A10020FFF780FC03E0241D6D1CB542CC
:10181000E6D300BF41F28830FEF79EFE01274FF469
:10182000FA360025164C13E0226838467F1C8242A7
:1018300006D02368224630A10020FFF765FC09E0AE
:101840002368224633A10020FFF75EFC241D6D1C97
:10185000B542E9D300BF41F28830FEF77DFEFEF7C6
:10186000E7FE31A10020FFF74FFC00BFFEE787E74E
:10187000666C61736820746573740D0A0000000063
:101880000030000865726173655F61646465723A77
:1018900025782065726173655F706167653A2564BC
:1018A0000D0A200061646465723A257820457261F2
:1018B0007365204572726F720D0A00006164646581
:1018C000723A25782045726173652046696E6973A6
:1018D000680D0A000020024061646465723A257850
:1018E000207772697465206572726F722076616C00
:1018F00075653A25780D0A006572726F2D3E616438
:101900006465723A25782076616C75653A25780DA4
:101910000A00000061646465723A25782076616C83
:1019200075653A25780D0A00666C617368207465E8
:101930007374206F7665720D0A00000000000000CD
:10194000000000000102030406070809000000006F
:1019500001020304000000000000545452205245CC
:101960004747455300303132333435363738394103
:10197000424344454600000098190008000000203A
:10198000100000006C010008A819000810000020D9
:10199000380B000088010008000000001000000063
:0819A000010000000024F40026
:0400000508000131BD
:00000001FF
