:020000040800F2
:10000000783200206502000825100008CF0F000894
:100010002110000823040008A511000800000000BA
:10002000000000000000000000000000CD010008FA
:100030002704000800000000110200085D100008FD
:100040007F0200087F0200087F0200087F0200088C
:100050007F0200087F0200087F0200087F0200087C
:100060007F0200087F0200087F0200087F0200086C
:100070007F0200087F0200087F0200087F0200085C
:100080007F0200087F0200087F0200087F0200084C
:100090007F0200087F0200087F0200087F0200083C
:1000A0007F0200087F0200087F0200087F0200082C
:1000B0007F0200087F0200087F0200087F0200081C
:1000C0007F0200087F0200087F0200087F0200080C
:1000D0007F0200087F0200087F0200087F020008FC
:1000E0007F0200087F0200087F0200087F020008EC
:1000F0007F0200087F0200087F0200087F020008DC
:100100007F0200087F0200087F0200087F020008CB
:100110007F0200087F0200087F020008F910000833
:100120007F0200087F0200087F0200087F020008AB
:1001300000F002F800F03AF80AA090E8000C8244BF
:100140008344AAF10107DA4501D100F02FF8AFF29C
:10015000090EBAE80F0013F0010F18BFFB1A43F0A5
:1001600001031847901F0000B01F0000103A24BF81
:1001700078C878C1FAD8520724BF30C830C144BF0C
:1001800004680C607047000000230024002500264E
:10019000103A28BF78C1FBD8520728BF30C148BFEA
:1001A0000B6070471FB51FBD10B510BD00F000F902
:1001B0001146FFF7F7FF01F016F800F01EF903B43F
:1001C000FFF7F2FF03BC00F025F90000224B19688D
:1001D0000868B0E8F00F80F30988BFF36F8F4FF025
:1001E000000080F311884EF00D0E704700000000F3
:1001F00006480068006880F3088862B661B6BFF3FD
:100200004F8FBFF36F8F00DF00BF00BF08ED00E02E
:10021000EFF30980BFF36F8F0F4B1A6820E9F00FDF
:10022000106008B54FF0500080F31188BFF34F8F76
:10023000BFF36F8F01F0AAFC4FF0000080F311882C
:10024000BDE8084019680868B0E8F00F80F3098835
:10025000BFF36F8F704700BF14000020EFF30580DD
:10026000704700000948804709480047FEE7FEE75D
:10027000FEE7FEE7FEE7FEE7FEE7FEE7FEE7FEE756
:1002800004480549054A064B70470000F71000086E
:1002900031010008782C002078320020782E0020D0
:1002A000782E002010B5203AC0F00B80B1E818502D
:1002B000203AA0E81850B1E81850A0E81850BFF450
:1002C000F5AF5FEA027C24BFB1E81850A0E81850EF
:1002D00044BF18C918C0BDE810405FEA827C24BF43
:1002E00051F8043B40F8043B08BF7047D20728BFD1
:1002F00031F8023B48BF11F8012B28BF20F8023B20
:1003000048BF00F8012B704702F0FF0343EA0322C5
:1003100042EA024200F02CB84FF0000200B513464A
:1003200094469646203922BFA0E80C50A0E80C5015
:10033000B1F12001BFF4F7AF090728BFA0E80C50C6
:1003400048BF0CC05DF804EB890028BF40F8042BBF
:1003500008BF704748BF20F8022B11F0804F18BF2C
:1003600000F8012B70477047704770474FF000024C
:100370000429C0F0128010F0030C3FF4CFAFCCF191
:10038000040CBCF1020F18BF00F8012BA8BF20F825
:10039000022BA1EB0C01FFF7C1BF5FEAC17C24BFB8
:1003A00000F8012B00F8012B48BF00F8012B704723
:1003B000754600F02BF8AE4605006946534620F01E
:1003C0000700854618B020B5FFF75AFFBDE820406A
:1003D0004FF000064FF000074FF000084FF0000B01
:1003E00021F00701AC46ACE8C009ACE8C009ACE8B4
:1003F000C009ACE8C0098D46704710B50446AFF39C
:1004000000802046BDE81040FFF7D9BE0048704785
:10041000142C002001491820ABBEFEE72600020084
:10042000704700BFFEE7704772B600BFFEE70000EE
:10043000014800687047000004000020034800687D
:100440000349097808440149086070470400002006
:100450000C00002010B50848006840F01000064964
:100460000860032000F0CCF80F2000F007F800F03F
:1004700049F8002010BD00000020024070B588B08F
:1004800004460025002600222146372000F07AF895
:10049000372000F067F800BF1648C06940F0200020
:1004A0001449C8610846C06900F02000019000BFEF
:1004B00000BF02A903A800F07DF900F0A3F94500F0
:1004C0000D48B5FBF0F0461E0C480D49086040F29F
:1004D000E7310B48C160466000210161816000F096
:1004E0001FFC20B9064800F04FFC08B070BD012089
:1004F000FBE700000010024040420F0000140040E3
:10050000DC02002008B500BF1448806940F00100FB
:10051000124988610846806900F00100009000BF20
:1005200000BF00BF0846C06940F08050C86108465F
:10053000C06900F08050009000BF00BF00220F2172
:10054000901E00F01FF800BF0549486820F0E060E9
:1005500040F00070486000BF08BD0000001002407D
:100560000000014001460846002809DB00F01F0397
:1005700001229A4043099B0003F1E023C3F80021C4
:1005800000BF70472DE9F05F80460D4616460027F4
:1005900000F00AFE074639462A46334601F00700B6
:1005A000C0F1070ABAF1040F02D94FF0040A01E0C2
:1005B000C0F1070AD14600F1040ABAF1070F02D2CE
:1005C0004FF0000A01E0A0F1030AD4464FF0010AFF
:1005D0000AFA09FAAAF1010A0AEA020A0AFA0CFA64
:1005E0004FF0010B0BFA0CFBABF1010B0BEA030B09
:1005F0004AEA0B042146404600F0DEFDBDE8F09FCC
:1006000000BF00F00702064B19684FF6FF031940C0
:10061000044B0B4343EA0221014B196000BF7047B2
:100620000CED00E00000FA0570B504460D460CB96B
:10063000012070BD5A48006800F00700A8420ED2A1
:100640005748006820F007002843554908600846CD
:10065000006800F00700A84201D00120E9E72078F7
:1006600000F0020002281DD1207800F004000428C8
:1006700005D14C48406840F4E0604A494860207821
:1006800000F00800082805D14648406840F4605052
:10069000444948604348406820F0F000A16808439E
:1006A00040494860207800F0010078B36068012874
:1006B00006D13C48006800F4003090B90120B8E74A
:1006C0006068022806D13748006800F0007040B921
:1006D0000120AEE73348006800F0020008B90120AD
:1006E000A7E73048406820F00300616808432D49BF
:1006F0004860FFF79DFE064609E0FFF799FE801B64
:1007000041F28831884202D9032092E707E0254868
:10071000406800F00C006168B0EB810FEDD120481B
:10072000006800F00700A8420ED91D48006820F0BC
:10073000070028431A4908600846006800F00700CF
:10074000A84201D0012074E7207800F004000428BA
:1007500007D11448406820F4E060E168084311497B
:100760004860207800F00800082808D10D4840684B
:1007700020F46050216940EAC1000A49486000F055
:1007800051F808494968C1F30311074A515CC84050
:100790000649086006480068FFF770FE002048E739
:1007A0000020024000100240D0200008100000206D
:1007B000080000200F2202600D4A526802F0030276
:1007C00042600B4A526802F0F0028260084A5268A6
:1007D00002F4E062C260064A526802F46052D20833
:1007E0000261044A126802F007020A6070470000C2
:1007F00000100240002002400148006870470000DD
:100800001000002000B5FFF7F7FF04494968C1F365
:100810000221034A515CC84000BD000000100240A4
:10082000E0200008F0B585B00FF26C0C9CE8E010F9
:1008300001A8A0E8E0101CA52D6800950021002269
:10084000002300240020194D696801F00C05F5B162
:10085000042D02D0082D19D101E0154819E001AD91
:10086000C1F38346AC5D01F4803555B10F4D6D6821
:10087000C5F340451DF805200D4D6543B5FBF2F36A
:1008800002E00C4D04FB05F3184602E000BF0848E7
:1008900000BF00BF05B0F0BD02030405060708094C
:1008A0000A0B0C0D0E0F1010010200000010024088
:1008B00000127A0000093D00F8B504460CB9012089
:1008C000F8BD207800F00100002878D0F848406892
:1008D00000F00C0004280CD0F548406800F00C0033
:1008E000082811D1F248406800F48030B0F5803F0C
:1008F0000AD1EF48006800F4003000285FD060683B
:1009000000285CD10120DBE700BF6068B0F5803FC4
:1009100006D1E748006840F48030E549086028E0E7
:10092000606858B9E248006820F48030E049086007
:100930000846006820F4802008601AE06068B0F57E
:10094000A02F0BD1DA48006840F48020D849086015
:100950000846006840F4803008600AE0D448006827
:1009600020F48030D24908600846006820F48020D6
:10097000086000BF606888B1FFF75AFD054606E0D1
:10098000FFF756FD401B642801D9032098E7C848AB
:10099000006800F400300028F2D010E0FFF748FDB6
:1009A000054606E0FFF744FD401B642801D90320FB
:1009B00086E7BF48006800F400300028F2D12078B4
:1009C00000F00200022857D1B948406800F00C003E
:1009D00050B1B748406800F00C00082818D1B4485E
:1009E000406800F4803098B9B148006800F0020017
:1009F00020B12069012801D0012061E7AC480068DE
:100A000020F0F800616940EAC100A949086033E0BC
:100A10002069E8B10120A7490860FFF709FD0546F4
:100A200006E0FFF705FD401B022801D9032047E738
:100A30009F48006800F002000028F2D09C4800683F
:100A400020F0F800616940EAC1009949086013E0AC
:100A5000002098490860FFF7EBFC054606E0FFF729
:100A6000E7FC401B022801D9032029E790480068D1
:100A700000F002000028F2D1207800F008000828D9
:100A80002DD1A069B8B101208B490860FFF7D0FCD7
:100A9000054606E0FFF7CCFC401B022801D90320E5
:100AA0000EE78348406A00F002000028F2D00120DF
:100AB00000F0BAFA13E000207F490860FFF7B8FCA5
:100AC000054606E0FFF7B4FC401B022801D90320CD
:100AD000F6E67748406A00F002000028F2D120785C
:100AE00000F00400042873D100277148C06900F0A9
:100AF000805070B900BF6E48C06940F080506C49AA
:100B0000C8610846C06900F08050009000BF00BF77
:100B100001276A48006800F48070B0B9674800682F
:100B200040F4807065490860FFF782FC054606E0E6
:100B3000FFF77EFC401B642801D90320C0E65F4814
:100B4000006800F480700028F2D000BFE06801283F
:100B500006D15748006A40F001005549086227E075
:100B6000E06858B95248006A20F001005049086214
:100B70000846006A20F00400086219E0E0680528D1
:100B80000BD14B48006A40F004004949086208460E
:100B9000006A40F0010008620AE04548006A20F05F
:100BA0000100434908620846006A20F00400086218
:100BB00000BFE068A0B1FFF73BFC054609E0FFF786
:100BC00037FC401B41F28831884202D9032077E686
:100BD00022E03748006A00F002000028EFD012E05F
:100BE000FFF726FC054608E0FFF722FC401B41F218
:100BF0008831884201D9032062E62D48006A00F05E
:100C000002000028F0D1012F05D12948C06920F049
:100C100080502749C86100BFE069C8B324484068D4
:100C200000F00C00082860D0E069022848D10020BC
:100C300020490866FFF7FCFB054606E0FFF7F8FBD6
:100C4000401B022801D903203AE61948006800F049
:100C500000700028F2D1206AB0F5803F07D1144817
:100C6000406820F40030A168084311494860D4E985
:100C7000080108430E49496821F4741108430C49DE
:100C8000486001200B490866FFF7D2FB054607E0E4
:100C90003DE0FFF7CDFB401B022801D903200FE602
:100CA0000348006800F000700028F2D02FE0000038
:100CB00000100240000042428004424200700040A6
:100CC000002014490866FFF7B3FB054606E0FFF76E
:100CD000AFFB401B022801D90320F1E50E48006854
:100CE00000F000700028F2D111E0E069012800D185
:100CF000E6E50948466806F48031206A814204D15D
:100D000006F47011606A814201D00120D8E500200C
:100D1000D6E50000000042420010024070477047D4
:100D200010B504460CB9012010BD94F83D0028B957
:100D3000002084F83C00204600F025F8022084F8CA
:100D40003D00211D206800F0DFF9012084F84600F5
:100D500000BF84F83E0001213F200155402001558D
:100D60004120015500BF00BF012084F8420043200C
:100D70000155442001554520015500BF012084F84C
:100D80003D000020D0E77047014691F83D00012862
:100D900001D001207047022081F83D000868C0683A
:100DA00040F001000B68D860164B0868984213D0D9
:100DB000154B086898420FD00868B0F1804F0BD0EF
:100DC000124B0868984207D0114B0868984203D02C
:100DD000104B086898420CD10868806800F0070240
:100DE000062A0CD00868006840F001000B68186003
:100DF00005E00868006840F001000B6818600020FA
:100E0000C8E70000002C014000340140000400400D
:100E100000080040000C0040704710B504462068F0
:100E20000069C0F34000D8B12068C068C0F340003A
:100E3000B0B16FF0020021680861012020772068BE
:100E4000806900F0030018B12046FFF7E5FF05E0D8
:100E5000204600F0ADF8204600F0ABF800202077E7
:100E600020680069C0F38000D8B12068C068C0F372
:100E70008000B0B16FF00400216808610220207783
:100E80002068806900F4407018B12046FFF7C4FF65
:100E900005E0204600F08CF8204600F08AF800209B
:100EA000207720680069C0F3C000D8B12068C0680E
:100EB000C0F3C000B0B16FF00800216808610420E1
:100EC00020772068C06900F0030018B12046FFF7C2
:100ED000A3FF05E0204600F06BF8204600F069F81B
:100EE0000020207720680069C0F30010D8B1206886
:100EF000C068C0F30010B0B16FF010002168086145
:100F0000082020772068C06900F4407018B120469E
:100F1000FFF782FF05E0204600F04AF8204600F087
:100F200048F8002020772068006900F0010058B1DF
:100F30002068C06800F0010030B16FF00100216846
:100F40000861204600F036F820680069C0F3C01040
:100F500058B12068C068C0F3C01030B16FF0800095
:100F6000216808612046FFF7D9FE20680069C0F3B8
:100F7000801058B12068C068C0F3801030B16FF0A5
:100F8000400021680861204600F020F820680069D0
:100F9000C0F3401058B12068C068C0F3401030B1B1
:100FA0006FF02000216808612046FFF7B8FE10BDF1
:100FB0007047704710B5044603492068884201D144
:100FC000FFF73CFA10BD000000140040704700BF5E
:100FD000FEE7000000B587B01C2206496846FFF70F
:100FE00061F90021684600F022F90349086007B062
:100FF00000BD0000B42000080000002008B500BFBC
:101000000648806940F00400044988610846806908
:1010100000F00400009000BF00BF08BD00100240B7
:1010200000BFFEE700BFFEE708B508490968C90828
:101030004FF47A72B1FBF2F14143009100BF00BF5F
:1010400000994A1E00920029F9D108BD1000002025
:1010500010B500BF012000F0D9F8FBE710B500BFC4
:10106000502080F31188BFF34F8FBFF36F8F00BF05
:1010700000F0FAFE18B14FF080500449086000BF3C
:10108000002080F3118800BF10BD000004ED00E0D7
:1010900000B58FB0282105A8FFF73EF91421684656
:1010A000FFF73AF901200590000406900020079010
:1010B0000120099002200C90C1030D914FF4E01122
:1010C0000E9105A8FFF7F8FB08B1FFF7ADF90F2067
:1010D000009002200190002002904FF48060039065
:1010E0000020049002216846FFF79EFA08B1FFF73E
:1010F0009BF90FB000BD704710B50248FFF78DFE99
:1011000010BD0000DC02002010B50268204B9842A0
:101110000ED0204B98420BD0B0F1804F08D01E4B20
:10112000984205D01D4B984202D01D4B984203D1E6
:1011300022F070024B681A43154B98420ED0154BA3
:1011400098420BD0B0F1804F08D0134B984205D095
:10115000124B984202D0124B984203D122F44072B3
:10116000CB681A4322F080034C6943EA0402026010
:101170008B68C3620B688362054B984202D0054BB3
:10118000984201D10B6903630123436110BD000044
:10119000002C0140003401400004004000080040E1
:1011A000000C004000BFFEE702480068C0F30220C8
:1011B000704700000CED00E010B5002804DB0A07C2
:1011C000130E054A135406E00A07140E034A00F0F2
:1011D0000F031B1FD45410BD00E400E018ED00E025
:1011E000704700207047FFF735F9FFF751FFFFF711
:1011F00005FFFFF7EFFE00F015F800BFFEE7014620
:101200000020842901D0CA1C1044704770B50446E0
:1012100025460DB1294600E00121084600F026FCD4
:10122000002070BD10B500F04FFC002010BD7FB550
:1012300004460D46606998B1A06988B1B4F9080008
:10124000FFF7DDFF0646D4E90510CDE90061029005
:101250002B462269D4E9001000F0AAFD039013E0A8
:10126000B4F90800FFF7CBFF064603A8CDE90060FC
:10127000238A9AB22B46D4E9001000F067FD0128BA
:1012800002D0002004B070BD0398FBE72DE9F041C7
:1012900005460E461C4807681C480068001D00F003
:1012A000E9FA50B91948006890F82C1001208840DC
:1012B00017490968814316480160681C38B936B17E
:1012C00012480168091D134800F01EFB1AE07C1942
:1012D0000E4800684460BC4207D20C480168091DF2
:1012E0000D48006800F0F6FA0CE008480168091D96
:1012F0000A48006800F0EEFA09480068844201D20A
:1013000007480460BDE8F081280000201400002098
:101310002C000020000400201C00002018000020E9
:101320004400002010B5044600F0FAFA2448006892
:10133000401C234908602348006840B921480460E4
:101340000846006801280DD100F042F90AE01E4865
:10135000006838B91B480068C06AE16A884201D851
:101360001848046019480068401C1849086008467D
:101370000068606494F82C100120884014490968C2
:10138000084313490860E16A01EB8101114A02EB4D
:101390008100211D00F0B8FA00F0ECFA0A4800685C
:1013A00068B108480068C06AE16A884207D24FF015
:1013B000805009490860BFF34F8FBFF36F8F10BD96
:1013C00024000020140000203000002040000020F5
:1013D0002C0000202403002004ED00E010B516E0EE
:1013E00000F09EFA0C48C068C468201D00F042FA64
:1013F0000A480068401E0949086009480068401E04
:101400000749086000F0B6FA204600F00BF80448DF
:1014100000680028E4D110BDEC0300202400002067
:101420002000002010B5044694F85D0030B9206B10
:1014300000F0BEFA204600F0BBFA1AE094F85D0016
:10144000012803D1204600F0B3FA12E094F85D00C1
:10145000022801D1012000E0002050B900BF502037
:1014600080F31188BFF34F8FBFF36F8F00BF00BFB2
:10147000FEE710BD30B54FF42053174800F00704C5
:101480002CB1C01D20F00700134C041B1B1B02468F
:10149000124C22600024114D6C60D018083820F0E6
:1014A00007000F4C206000240D4D2D686C600C4D22
:1014B0002D682C601146441A4C60094C24680C605D
:1014C000084D4C682C60084D4C682C604FF000446F
:1014D000064D2C6030BD0000140400205800002090
:1014E0006000002068000020640000206C000020E4
:1014F00000BFFFF773FF064800680128F9D94FF0D5
:10150000805004490860BFF34F8FBFF36F8FF0E73F
:101510002403002004ED00E02DE9F05F82460F4631
:1015200090469B460A9E0C9C4FEA8801A522206BA0
:10153000FEF7EAFEA8F10100216B01EB800929F01A
:10154000070909F0070008B9012000E0002050B9A0
:1015500000BF502080F31188BFF34F8FBFF36F8F10
:1015600000BF00BFFEE7002507E0795D04F134000D
:101570004155785D00B902E06D1C102DF5D300BF18
:10158000002143200155072E00D30626E662E664BB
:1015900000202065201D00F09AF904F1180000F0E9
:1015A00096F92461C6F10700A061646200206065BD
:1015B000A06584F85C005A465146484600F048F958
:1015C00020600B9808B10B980460BDE8F09F000004
:1015D00010B5002407E004EB84010F4A02EB810000
:1015E00000F068F9641C072CF5D30C4800F062F990
:1015F0000B4800F05FF90B4800F05CF90A4800F076
:1016000059F90A4800F056F90448094908600448A5
:101610000849086010BD000024030020B00300202A
:10162000C4030020D8030020EC03002000040020A5
:10163000180000201C00002010B50146164800E0EC
:10164000006803688B42FBD30246436813448B4215
:1016500004D143684C682344436001460A464B6802
:1016600013440468A34211D10C4C03682468A342BC
:1016700008D04B680468646823444B6003681B68A7
:101680000B6005E0054B1B680B6001E003680B6015
:10169000884200D0016010BD58000020600000208A
:1016A0000A490968096809B9012100E0002121B14E
:1016B0004FF0FF31064A116006E004490968C96825
:1016C000C868034A41681160704700001800002094
:1016D000440000200E480068401C08B9012000E0CA
:1016E000002050B900BF502080F31188BFF34F8F06
:1016F000BFF36F8F00BF00BFFEE700BF502080F335
:101700001188BFF34F8FBFF36F8F00BF00BFFEE79D
:10171000700000202DE9F04104464FF0000800F071
:101720002DFA4648006808B9FFF7A4FE444800684F
:10173000204000286BD1D4B1083404F00700B0B1C8
:1017400004F00700C0F10800044404F0070008B9E1
:10175000012000E0002050B900BF502080F3118824
:10176000BFF34F8FBFF36F8F00BF00BFFEE7002CAA
:101770004DD034480068844249D8334E304605681D
:1017800001E02E462D686868A04202D22868002831
:10179000F7D12A480068854239D0306800F108083E
:1017A000286830606868001B102819D92F1907F0C5
:1017B000070008B9012000E0002050B900BF502008
:1017C00080F31188BFF34F8FBFF36F8F00BF00BF4F
:1017D000FEE76868001B78606C603846FFF72CFFF6
:1017E000184968680968081A1649086008460068B8
:1017F00016490968884203D21248006813490860F4
:101800000F4968680968084368600020286000F094
:10181000CFFB08F0070008B9012000E0002050B914
:1018200000BF502080F31188BFF34F8FBFF36F8F3D
:1018300000BF00BFFEE74046BDE8F0816000002029
:101840006C00002064000020580000206800002088
:10185000001F4FF080730360001F21F0010303603D
:10186000001F034B036014380260203870470000EB
:10187000D516000801460A69D1E901309860D1E91E
:10188000010358605068884201D188685060002088
:1018900008611068401E106010687047034B0360B9
:1018A000034B0B6080231360704700007C00002016
:1018B000DC00002000F1080141604FF0FF31816041
:1018C00000F10801C1600161002101607047002141
:1018D0000161704710B502460B685C1C0CB91069B9
:1018E00007E002F1080000E04068446824689C4278
:1018F000FAD944684C604C68A160886041600A6114
:101900001468641C146010BD42684A6093688B6060
:10191000936859609160086103685B1C03607047BD
:1019200000BF502080F31188BFF34F8FBFF36F8F3C
:1019300000BF0E480068401C0C490860084600685B
:10194000012812D10A480068C0B208B9012000E09D
:10195000002050B900BF502080F31188BFF34F8F93
:10196000BFF36F8F00BF00BFFEE77047700000201D
:1019700004ED00E00D48006850B900BF502080F32E
:101980001188BFF34F8FBFF36F8F00BF00BFFEE71B
:1019900006480068401E054908600846006820B9EE
:1019A000002080F3118800BF00BF70477000002046
:1019B00070B506463546002E3FD0083D2C461F49DF
:1019C00060680968084008B1012000E0002050B9B3
:1019D00000BF502080F31188BFF34F8FBFF36F8F8C
:1019E00000BF00BFFEE7206808B9012000E000202A
:1019F00050B900BF502080F31188BFF34F8FBFF361
:101A00006F8F00BF00BFFEE70C496068096808409F
:101A100098B1206888B9094960680968884360609E
:101A200000F0ACF806496068096808440449086099
:101A30002046FFF701FE00F0BBFA70BD6C000020ED
:101A40006400002000204FF0E02108618861064812
:101A500000684FF47A71B0FBF1F0401E4FF0E021C6
:101A600048610720086170471000002070B50446E7
:101A70000025D4B11248006808B9012000E0002018
:101A800050B900BF502080F31188BFF34F8FBFF3D0
:101A90006F8F00BF00BFFEE700F070F80021204606
:101AA000FFF7F4FB00F084FA05463DB94FF0805093
:101AB00004490860BFF34F8FBFF36F8F70BD000004
:101AC0004C00002004ED00E010B586B00020059029
:101AD000049003AA04A905A8FFF7E0FE0022DDE9AF
:101AE00004101346CDE9002102901DA11E48039A5F
:101AF00000F05EF91D4908600846006808B101243D
:101B000000E00024012C17D100BF502080F3118881
:101B1000BFF34F8FBFF36F8F00BF4FF0FF301449FB
:101B20000860012013490860002013490860FFF78E
:101B300057FB00F08FF810E0601C08B1012000E0B6
:101B4000002050B900BF502080F31188BFF34F8FA1
:101B5000BFF36F8F00BF00BFFEE706B010BD0000EF
:101B600049444C4500000000F114000848000020E2
:101B700044000020300000202800002002480068B7
:101B8000401C0149086070474C00002010B52A48ED
:101B9000006818B10120294908604CE0002027495D
:101BA0000860FFF71EFB26490860084600682549C3
:101BB000096888420BD92449096801F15400496D2C
:101BC0001F4A12681F4B1B68D21A114401601C483F
:101BD00000681C4908601D480068B0FA80F0C0F138
:101BE0001F0101EB81001A4A52F8200008B10120C0
:101BF00000E0002050B900BF502080F31188BFF3EF
:101C00004F8FBFF36F8F00BF00BFFEE701EB810274
:101C10000F4B03EB820042685268426000F10802F9
:101C20004368934202D14268526842604268D26877
:101C3000054B1A6000BF10BD4C000020380000208A
:101C40005400002050000020140000202C00002030
:101C5000240300201CB53849084600780190FF2075
:101C60000A4610700846007800909DF8000000F0C9
:101C7000F0009DF80020904201D1012000E00020FA
:101C800050B900BF502080F31188BFF34F8FBFF3CE
:101C90006F8F00BF00BFFEE79DF8000000F050000E
:101CA000264A10700720264A106009E02448006880
:101CB000401E234A10609DF800004006000E009070
:101CC0009DF8000000F080008028EFD01C480068DC
:101CD000C0F10700042801D1012000E0002050B924
:101CE00000BF502080F31188BFF34F8FBFF36F8F79
:101CF00000BF00BFFEE7124800680002104A1060F3
:101D00001046008800F4E06010600B4A01981070E3
:101D10000C48006840F470000A49086008460068F2
:101D200040F070400860FFF78DFE00200649086013
:101D3000FEF75EFA00201CBD00E400E07400002005
:101D40007800002020ED00E0700000202DE9FF4F1A
:101D500085B0804689461746DDE912ABB800FFF72B
:101D6000D9FC064656B16020FFF7D4FC04460CB1FE
:101D7000266304E03046FFF71BFE00E000248CB130
:101D8000002084F85D00CDE900ABCDE902403A4681
:101D900049464046089BFFF7BFFB2046FFF7C2FAC3
:101DA000012501E04FF0FF35284609B0BDE8F08F6E
:101DB0002DE9F04F85B00746884691469A46DDE901
:101DC0000EB6109C0EB1012000E0002050B900BFFB
:101DD000502080F31188BFF34F8FBFF36F8F00BF88
:101DE00000BFFEE70CB1012000E0002050B900BFA9
:101DF000502080F31188BFF34F8FBFF36F8F00BF68
:101E000000BFFEE7602003900398602801D1012005
:101E100000E0002050B900BF502080F31188BFF3CC
:101E20004F8FBFF36F8F00BF00BFFEE7B4B1AEB1FD
:101E300025462C462E63022085F85D00002004A96B
:101E400053464A46CDE900B1CDE9025041463846F5
:101E5000FFF762FB2846FFF765FA01E000200490D7
:101E6000049805B0BDE8F08F2DE9F0414FF000086F
:101E700044480068002877D143480068451C424820
:101E8000056015BB41480068006808B9012000E002
:101E9000002050B900BF502080F31188BFF34F8F4E
:101EA000BFF36F8F00BF00BFFEE7384807683848B0
:101EB0000068364908603648076036480068401CAC
:101EC00034490860FFF7ECFB00BF334800688542E7
:101ED0003CD300BF2D480068006808B9012000E02D
:101EE000002020B14FF0FF302B4908602DE027483B
:101EF0000068C068C4686668B54202D226480660B9
:101F000023E0201DFFF7B6FCA06A18B104F1180009
:101F1000FFF7B0FC94F82C10012088401F49096895
:101F200008431E490860E16A01EB81011C4A02EB8B
:101F30008100211DFFF7E8FC1A49E06A0968C96AB7
:101F40008842C7D34FF00108C4E700BF15480068B6
:101F5000C06A00EB8000124951F82000012801D925
:101F60004FF0010805E0FFE70F480068401C0E49EC
:101F700008600E48006808B14FF001084046BDE80F
:101F8000F08100004C0000202800002018000020F4
:101F90001C0000203C000020440000202C000020F9
:101FA000240300201400002034000020380000200A
:101FB00070B5002400263648006850B900BF502094
:101FC00080F31188BFF34F8FBFF36F8F00BF00BF47
:101FD000FEE7FFF7A5FC2E480068401E2C4908606C
:101FE0000846006800284FD12A48006800284BD0D6
:101FF00024E02948C068C46804F11800FFF73AFCDF
:10200000201DFFF737FC94F82C100120884023494D
:102010000968084321490860E16A01EB8101204A0F
:1020200002EB8100211DFFF76FFC1E49E06A096881
:10203000C96A884202D301201B490860164800681B
:1020400008B9012000E000200028D2D00CB1FFF731
:1020500027FB1648056865B100BFFFF705FF10B103
:102060000120114908606D1E002DF6D100200F4996
:1020700008600D48006838B1012630070C49086037
:10208000BFF34F8FBFF36F8FFFF774FC304670BD07
:102090004C00002024000020D80300202C00002049
:1020A0002403002014000020380000203400002009
:1020B00004ED00E0E82000085110000800000000D6
:1020C0000000000080000000000000000000000090
:1020D00000000000000000000102030406070809D8
:1020E000000000000102030464656661756C7454AD
:1020F00061736B0014210008000000207C000000C8
:102100006C010008902100087C000020FC310000D8
:10211000880100080000000000000000100000001E
:10212000010000000024F400000000000000000096
:10213000000000000000000000000000000000009F
:10214000000000000000000000000000000000008F
:10215000000000000000000000000000000000007F
:10216000000000000000000000000000000000006F
:10217000000000000000000000000000000000005F
:1021800000000000AAAAAAAA0000000000000000A7
:0400000508000131BD
:00000001FF
