:020000040800F2
:10000000280C0020350700082503000827030008F6
:100010002B0300082F030008330300080000000032
:10002000000000000000000000000000370300088E
:1000300039030008000000003B0300083D030008EE
:100040004F0700084F0700084F0700084F07000838
:100050004F0700084F0700084F0700084F07000828
:100060004F0700084F0700084F0700084F07000818
:100070004F0700084F0700084F0700084F07000808
:100080004F0700084F0700084F0700084F070008F8
:100090004F0700084F0700084F0700084F070008E8
:1000A0004F0700084F0700084F0700084F070008D8
:1000B0004F0700084F0700084F0700084F070008C8
:1000C0004F0700084F0700084F0700084F070008B8
:1000D0004F070008AB0600084F0700084F0700084D
:1000E0004F0700084F0700084F0700084F07000898
:1000F0004F0700084F0700084F0700084F07000888
:100100004F0700084F0700084F0700084F07000877
:100110004F0700084F0700084F0700084F07000867
:100120004F0700084F0700084F0700084F07000857
:1001300000F002F800F03AF80AA090E8000C8244BF
:100140008344AAF10107DA4501D100F02FF8AFF29C
:10015000090EBAE80F0013F0010F18BFFB1A43F0A5
:1001600001031847482B0000682B0000103A24BFF9
:1001700078C878C1FAD8520724BF30C830C144BF0C
:1001800004680C607047000000230024002500264E
:10019000103A28BF78C1FBD8520728BF30C148BFEA
:1001A0000B6070471FB51FBD10B510BD02F039FDC3
:1001B0001146FFF7F7FF00F009F802F057FD03B40E
:1001C000FFF7F2FF03BC00F015FA00000026002440
:1001D00000BF00274FF0010800BF002500F0A0F984
:1001E0004FF4A06000F0C6FA2EA1002002F06AFCD5
:1001F00000F04DFB00BF2F4E10E0304600F08CFBAE
:10020000042804D02CA1002002F05CFC08E02EA100
:10021000002002F057FC06F500666D1CFA2DECD3A9
:1002200000BF4FF4FA370025224C15E0414608F193
:100230000108204600F040FC042805D0224626A1F3
:10024000002002F03FFC05E02368224628A10020A0
:1002500002F038FC241D6D1CBD42E7D34FF00108AD
:100260000025144C14E02268404608F1010882423F
:1002700006D02368224623A1002002F023FC05E0DB
:10028000236822461FA1002002F01CFC241D6D1CC7
:10029000BD42E8D300F007FB1FA1002002F012FCD2
:1002A00000BFFEE7666C61736820746573740D0AA5
:1002B00000000000003000086572617365206572FF
:1002C000726F650D0A0000006572617365206669D2
:1002D0006E6973680D0A000061646465723A25787E
:1002E000207772697465206572726F720D0A000062
:1002F00061646465723A25782077726974653A257D
:10030000780D0A0061646465723A25782076616C24
:1003100075653A25780D0A0074657374206F7665EB
:10032000720D0A00704700BFFEE700BFFEE700BF86
:10033000FEE700BFFEE77047704770477047000058
:100340000CB50020019000906C48006840F48030AB
:100350006A49086000BF6948006800F400300090F6
:100360000198401C0190009818B90198B0F5A06F51
:10037000F1D16248006800F4003010B10120009013
:1003800001E0002000900098012843D15C480068FB
:1003900040F010005A4908600846006820F0030049
:1003A00008600846006840F0020008605348406852
:1003B000524948600846406848600846406840F432
:1003C000806048600846406820F47C104860084619
:1003D000406840F4E81048600846006840F08070CB
:1003E000086000BF4548006800F000700028F9D0A0
:1003F0004248406820F00300404948600846406891
:1004000040F00200486000BF3C48406800F00C002B
:100410000828F9D10CBD10B5FFF792FF10BD10B53B
:100420003648006840F001003449086008464068DA
:10043000344908403149486008460068324908405C
:100440002E4908600846006820F4802008600846AD
:10045000406820F4FE0048604FF41F008860FFF7FA
:10046000DAFF4FF000602949086010BD10B5002187
:1004700000200022214B5B6803F00C0121B104290C
:1004800006D0082928D107E0214B224C236027E021
:100490001F4B204C236023E0184B5B6803F4701063
:1004A000164B5B6803F48032022303EB904022B9C1
:1004B000194B4343174C23600DE0104B5B6803F46A
:1004C000003323B1144B4343124C236003E0104B21
:1004D0004343104C236003E00D4B0E4C236000BFE0
:1004E00000BF064B5B68C3F303130C4CE15C094B84
:1004F0001B68CB40074C236010BD00000010024079
:10050000002002400000FFF8FFFFF6FE08ED00E0CB
:1005100000127A000000002000093D0004000020C5
:1005200010B56FF0040000F074F92E4800682E49F1
:10053000B0FBF1F02D4908700846007800EB40014F
:10054000C1EBC0104FF6FF7101EAC00028490880D6
:1005500010BD0146254A12784A434FF0E0235A6104
:1005600000229A611A46126942F001021A6100BF24
:100570004FF0E022106900F001021AB100F480325D
:10058000002AF5D04FF0E022126922F001024FF06C
:10059000E0231A6100229A6170470146144A1288CA
:1005A0004A434FF0E0235A6100229A611A461269C9
:1005B00042F001021A6100BF4FF0E022106900F022
:1005C00001021AB100F48032002AF5D04FF0E02287
:1005D000126922F001024FF0E0231A6100229A61B1
:1005E000704700000000002000127A001400002074
:1005F00016000020014600BF704700BF494A12881C
:1006000002F04002002AF9D0C2B2464B1B1D1A80EC
:10061000704710B586B00446012144F2040001F091
:1006200015F94FF40070ADF8140003208DF8160092
:1006300018208DF8170005A93B4800F047FC4FF43F
:100640008060ADF8140004208DF8170005A9364825
:1006500000F03CFC25208DF8000003208DF80100FF
:100660008DF8020001208DF80300684600F087F83D
:1006700001940020ADF80800ADF80A00ADF80C00B8
:10068000ADF810000C20ADF80E0001A9254800F0CF
:10069000AEFD012240F22551224800F040FE01212A
:1006A000204800F030FE06B010BD10B540F22551D4
:1006B0001C4800F019FF10B31A4800F095FEC4B2B0
:1006C0001A48008800F40040C8B91848008800F4AF
:1006D000804060B10A2C03D000201449088020E03B
:1006E0001248008840F400401049088019E00D2CA1
:1006F00006D10E48008840F480400C49088010E084
:100700000A480088C0F30D0009490C5407480088C6
:10071000401C0649088008460088C72801DD0020E3
:10072000088010BD00380140000801401C00002076
:10073000440000200948804709480047FEE7FEE7DB
:10074000FEE7FEE7FEE7FEE7FEE7FEE7FEE7FEE781
:1007500004480549054A064B704700001F0400087D
:100760003101000828060020280C0020280800205D
:100770002808002031490143314A1160704770B5A3
:10078000002100230F22C47804B32D4C246804F404
:10079000E064C4F5E064210AC1F10403CA4044786E
:1007A00004FA03F18478144021430901254C0678AA
:1007B000A155047804F01F050124AC4005786D11A3
:1007C000AD0005F1E025C5F8004109E0047804F02A
:1007D0001F050124AC401C4D0678761145F82640D3
:1007E00070BD1A4A0A400243154B1B1F1A6070471E
:1007F00039B1134A121D12680243114B1B1D1A60B6
:1008000006E00F4A121D126882430D4B1B1D1A6031
:100810007047042808D14FF0E021096941F0040134
:100820004FF0E022116107E04FF0E021096921F06B
:1008300004014FF0E0221161704700000000FA054A
:100840000CED00E000E400E080E100E080FFFF1F2D
:1008500001460020FE4A106800F03800084310608E
:100860007047FB49096821F00801F94A11601146F7
:100870000968014311607047F549096821F01001CA
:10088000F34A116011460968014311607047F1484D
:10089000EF494860F04848607047EE48EC494860CE
:1008A000ED4848607047EA48006940F08000E84938
:1008B00008617047E648006940F08000E44908613B
:1008C00070470420E249C96801F0010109B1012023
:1008D0000EE0DF49C96801F0040109B1022007E018
:1008E000DB49C96801F0100109B1032000E00420D0
:1008F000704700B502460423FFF7E3FF034603E019
:10090000FFF7DFFF0346521E012B01D1002AF7D16A
:1009100002B90523184600BD30B5044604254FF43E
:100920003020FFF7E6FF0546042D17D1C8480069BF
:1009300040F00200C649086108464461006940F081
:10094000400008614FF43020FFF7D3FF0546C04850
:10095000006941F6FD710840BD490861284630BD77
:1009600010B504244FF43020FFF7C3FF0446042CD5
:1009700016D1B748006940F00400B549086108463F
:10098000006940F0400008614FF43020FFF7B1FFEC
:100990000446AF48006941F6FB710840AC49086164
:1009A000204610BD00B502460423FFF78AFF034628
:1009B00003E0FFF786FF0346521E012B01D1002AF8
:1009C000F7D102B90523184600BD10B504244FF431
:1009D0003020FFF7E7FF0446042C16D19C4800693D
:1009E00040F004009A4908610846006940F0400060
:1009F00008614FF43020FFF7D5FF044694480069A2
:100A000041F6FB71084092490861204610BD002064
:100A10008F49C96901F0020109B1012000E00020FD
:100A2000704730B5A5250424FFF7F1FF00B100257C
:100A30004FF43020FFF75DFF0446042C3AD185487F
:100A400083498860844888600846006940F0200037
:100A500008610846006940F0400008614FF430200A
:100A6000FFF747FF0446042C1BD17948006941F683
:100A7000DF710840764908610846006940F01000BF
:100A8000086176480580E002FFF733FF0446052C35
:100A900010D06F48006941F6EF7108406C49086159
:100AA00008E0052C06D06A48006941F6EF7108405D
:100AB00067490861204630BD78B506460C460425D6
:100AC00000200090E802FFF714FF0546042D24D112
:100AD0005F48006940F001005D4908613480E80228
:100AE000FFF707FF0546042D10D1B01C0090200C25
:100AF00000990880E802FFF7FCFE054654480069AB
:100B000041F6FE7108405249086106E0504800690C
:100B100041F6FE7108404E490861284678BD70B51F
:100B200004460D460426F002FFF7E3FE0646042EB7
:100B300011D14748006940F001004549086125800E
:100B4000F002FFF7D6FE06464148006941F6FE7105
:100B500008403F490861304670BD70B505460E46F5
:100B60000424E002FFF7C5FE0446042C17D13948DF
:100B700037498860384888600846006940F01000AE
:100B800008612E80E002FFF7B4FE0446052C06D073
:100B90002F48006941F6EF7108402D490861204651
:100BA00070BD2DE9F04304464FF6FF763746B04658
:100BB000B1460425E443E6B2C4F30727C4F307486B
:100BC0004FEA1469E802FFF794FE0546042D49D167
:100BD00020481F498860204888600846006940F026
:100BE00010000861FF2E06D01C4808300680E8027D
:100BF000FFF77FFE0546042D08D1FF2F06D01748CA
:100C00000A300780E802FFF774FE0546042D0AD17A
:100C1000B8F1FF0F07D011480C30A0F80080E802AF
:100C2000FFF767FE0546042D0AD1B9F1FF0F07D083
:100C30000A480E30A0F80090E802FFF75AFE054679
:100C4000052D0FD00248006941F6EF71084007E01A
:100C50000020024023016745AB89EFCD00F8FF1F5C
:100C6000664908612846BDE8F08330B5054604248E
:100C70004FF43020FFF73DFE0446042C41D160487C
:100C80005E4988605F4888600846006940F020003F
:100C900008610846006940F0400008614FF43020C8
:100CA000FFF727FE0446042C22D15448006941F680
:100CB000DF710840514908610846006940F01000A2
:100CC00008611DB100205049088002E0A5204E496E
:100CD00008804FF43020FFF70CFE0446052C10D09E
:100CE0004648006941F6EF7108404449086108E050
:100CF000052C06D04148006941F6DF7108403F49A4
:100D00000861204630BDF0B505460E46174604245E
:100D10003B483A4988603B488860E002FFF7E9FDBC
:100D20000446042C19D13548006940F010003349BD
:100D3000086147F0F800304328433349891C088094
:100D4000E002FFF7D6FD0446052C06D02B480069CB
:100D500041F6EF710840294908612046F0BD274857
:100D6000C069800870472548006A70470020234901
:100D7000096801F0200109B1012000E0002070475E
:100D800029B11E4A126902431C4B1A6104E01B4A36
:100D900012698243194B1A617047014600200129EC
:100DA00008D1164AD26902F001020AB1012008E016
:100DB000002006E0114AD2680A400AB1012000E092
:100DC000002070470D49C860704704200B49C9686E
:100DD00001F0010109B101200EE00849C96801F0E4
:100DE000040109B1022007E00449C96801F01001BB
:100DF00009B1032000E004207047000000200240F9
:100E000023016745AB89EFCD00F8FF1F10B50446FD
:100E1000CC48844208D10121042000F031FD00219A
:100E2000042000F02DFD46E0C748844208D101218E
:100E3000082000F025FD0021082000F021FD3AE007
:100E4000C248844208D10121102000F019FD002180
:100E5000102000F015FD2EE0BD48844208D101218C
:100E6000202000F00DFD0021202000F009FD22E0EF
:100E7000B848844208D10121402000F001FD002142
:100E8000402000F0FDFC16E0B348844208D1012167
:100E9000802000F0F5FC0021802000F0F1FC0AE049
:100EA000AE48844207D10121801500F0E9FC002101
:100EB000A01500F0E5FC10BD10B50121084600F0BA
:100EC000DFFC0021012000F0DBFC10BD2DE9F0412A
:100ED000024600250026002000230024002791F868
:100EE00003C00CF00F0591F803C00CF0100CBCF11E
:100EF000000F03D091F802C04CEA050591F800C03C
:100F0000BCF1000F31D0146800202BE04FF0010C31
:100F10000CFA00F3B1F800C00CEA03069E4220D19F
:100F200083004FF00F0C0CFA03F7BC4305FA03FCE7
:100F30004CEA040491F803C0BCF1280F06D14FF02D
:100F4000010C0CFA00FCC2F814C00AE091F803C0CE
:100F5000BCF1480F05D14FF0010C0CFA00FCC2F8AF
:100F600010C0401C0828D1D31460B1F800C0BCF1F7
:100F7000FF0F34DD546800202EE000F1080C4FF024
:100F8000010808FA0CF3B1F800C00CEA03069E420F
:100F900021D183004FF00F0C0CFA03F7BC4305FA84
:100FA00003FC4CEA040491F803C0BCF1280F05D1FE
:100FB00000F1080C08FA0CF8C2F8148091F803C08C
:100FC000BCF1480F07D100F1080C4FF0010808FAF6
:100FD0000CF8C2F81080401C0828CED35460BDE83D
:100FE000F0814FF6FF710180022181700421C170F0
:100FF00070470246002093680B400BB1012000E0CF
:10100000002070470146886880B270470246002081
:10101000D3680B400BB1012000E00020704701466F
:10102000C86880B2704701617047416170470AB17A
:10103000016100E041617047C16070474FF4803248
:101040000A438261816182618269826970470246D6
:101050000020434B18684FF68073184040EA021096
:1010600008433F4B186070473E49C8617047F0B570
:101070000A46002300240021002500F00046B6F1B6
:10108000004F02D1364EF16901E0354E7168C0F370
:10109000034583B200F44016B6F5401F08D121F095
:1010A00070612F4E766826F070662D4F7E6012E0DC
:1010B00000F48016B6F5801F06D1032606FA05F463
:1010C000A14341F0706106E0460D360103FA06F6D1
:1010D000B14341F0706122B1460D360103FA06F6C4
:1010E000314300F00046B6F1004F02D11C4EF161D1
:1010F00001E01B4E7160F0BD30B500228B071C0F64
:101100000F2303FA04F2164B08338C1053F82430E3
:101110009343134C08348D1044F8253023468C102B
:1011200053F824308C07240F00FA04F423430C4CAA
:1011300008348D1044F8253030BD0A49DC31086090
:101140007047000000080140000C01400010014001
:101150000014014000180140001C01400020014023
:10116000000001400000204210B50446FB488442C4
:1011700009D10121880300F083FB00214FF4804056
:1011800000F07EFB32E0F648844209D10121480498
:1011900000F083FB00214FF4003000F07EFB25E0DF
:1011A000F048844209D10121880400F076FB002137
:1011B0004FF4802000F071FB18E0EB48844209D125
:1011C0000121C80400F069FB00214FF4002000F069
:1011D00064FB0BE0E548844208D10121080500F0DA
:1011E0005CFB00214FF4801000F057FB10BD2DE98F
:1011F000F04786B005460E460024A24600BFA14631
:101200000027B08900B100BF2F462C8A4CF6FF7032
:101210000440F08804432C82AC894EF6F31004405D
:10122000B08831890843718908430443AC81AC8A92
:101230004FF6FF400440B0890443AC8201A800F09F
:1012400098FAC648874202D1DDF810A001E0DDF827
:101250000CA0A88900F4004040B10AEBCA0000EBE2
:101260000A1031684900B0FBF1F807E00AEBCA0048
:1012700000EB0A1031688900B0FBF1F86420B8FB7C
:10128000F0F004012009642101FB1089A88900F411
:10129000004040B1322000EBC900B0FBF1F000F09B
:1012A0000700044308E0322000EB09106421B0FB82
:1012B000F1F000F00F0004432C8106B0BDE8F08788
:1012C0004FF41651016000218180C18001810C2101
:1012D000418100218181704710B502460020108AAB
:1012E0004FF2FF0318400B884C8823438C8823431C
:1012F000CC8823431843108210BD00210180418017
:101300008180C180704721B1828942F4005282817C
:1013100004E082894DF6FF731A4082817047F0B570
:101320000346002400260025002040F66A17B94233
:1013300000D100BF1846C1F3421401F01F06012777
:1013400007FA06F5012C01D10C3004E0022C01D182
:10135000103000E014301AB107682F43076002E034
:101360000768AF430760F0BD1AB1838A0B438382DD
:1013700002E0838A8B4383827047028A4FF6F073C0
:101380001A400282028A0A430282704782894FF21F
:10139000FF731A40828182890A438281704721B19A
:1013A000828942F00202828104E082894FF6FD7355
:1013B0001A4082817047028A4FF6DF731A40028218
:1013C000028A0A430282704721B1028A42F48042B3
:1013D000028204E0028A4BF6FF731A4002827047D1
:1013E000C1F308028280704701468888C0F3080074
:1013F0007047818941F0010181817047028BD2B22F
:101400000283028B42EA012202837047028B02F4BC
:101410007F420283028B0A430283704721B1828A92
:1014200042F02002828204E0828A4FF6DF731A4083
:101430008282704721B1828A42F01002828204E0E7
:10144000828A4FF6EF731A408282704721B1828AF6
:1014500042F00802828204E0828A4FF6F7731A4053
:101460008282704721B1828942F40042828103E086
:101470008289C2F30E028281704721B1828A42F4CE
:101480000062828204E0828A4FF2FF731A408282F5
:101490007047828A4FF6FB731A408282828A0A431F
:1014A0008282704721B1828A42F00202828204E085
:1014B000828A4FF6FD731A408282704702460020EE
:1014C000B1F5007F00D100BF13880B400BB10120A4
:1014D00000E00020704701F40072B2F5007F00D1F7
:1014E00000BFCA430280704770B502460024002343
:1014F0000025002040F66A16B14200D100BFC1F3BA
:10150000421501F01F03012606FA03F3012D02D153
:101510009689334006E0022D02D1168A334001E05D
:10152000968A33400C12012606FA04F416883440D9
:1015300013B10CB1012000E0002070BD10B50022F5
:10154000002340F66A14A14200D100BF0A12012410
:101550009440A3B2DC43048010BD00000038014079
:101560000044004000480040004C00400050004053
:10157000DF48006840F00100DD4908600846406827
:10158000DC490840DA49486008460068DA49084002
:10159000D74908600846006820F4802008600846A3
:1015A000406820F4FE0048604FF41F0088607047D8
:1015B000CF49096821F48031CD4A1160114609688C
:1015C00021F480211160B0F5803F03D0B0F5802F69
:1015D0000ED106E0C649096841F48031C44A116061
:1015E00007E0C349096841F4A021C14A116000E045
:1015F00000BF00BF704710B5014600220023002045
:101600004A11012A02D1BA4C236806E0022A02D10B
:10161000B74C236A01E0B64C636A01F01F02012453
:1016200094401C400CB1012000E0002010BD38B5F2
:10163000002000900024002500BF3120FFF7DBFFD1
:1016400005460098401C00900098B0F5A06F01D0AE
:10165000002DF2D03120FFF7CEFF08B1012400E0C9
:101660000024204638BD01460020A14A106820F021
:10167000F80040EAC10010607047A0490860704758
:10168000024600209A4B586820F47C1042EA01037D
:101690001843974B58607047984908667047014651
:1016A0000020934A506820F00300084350607047C0
:1016B0008F48406800F00C007047014600208C4ABB
:1016C000506820F0F0000843506070470146002049
:1016D000874A506820F4E060084350607047014634
:1016E0000020834A506820F4605040EAC1005060F6
:1016F000704729B17E4A527A02437D4B5A7204E008
:101700007B4A527A82437A4B5A7270477B49D8316E
:101710000860704701460020754A506820F4404038
:101720000843506070470021714A20321170704A9E
:1017300082F82010012802D004280AD104E00121F7
:101740006B4A2032117005E00521694A2032117080
:1017500000E000BF00BF70476949086070476449F6
:10176000096A0143624A1162704765494439086059
:10177000704730B500210022002400235C4D6D68C5
:1017800005F00C0121B1042905D0082923D105E079
:101790005C4D056022E05B4D05601FE0544D6D68B7
:1017A00005F47012524D6D6805F48034022505EB86
:1017B00092421CB9544D554305600BE04C4D6D6889
:1017C00005F400351DB1504D5543056002E04D4D07
:1017D0005543056002E04B4D056000BF00BF444D1E
:1017E0006D6805F0F0010909484D6B5C0568DD4046
:1017F00045603F4D6D6805F4E061090A434D6B5C3F
:101800004568DD4085603A4D6D6805F46051C90A50
:101810003E4D6B5C4568DD40C560354D6D6805F437
:101820004041890B3A4D6B5CC568B5FBF3F505612A
:1018300030BD29B12E4A526902432D4B5A6104E052
:101840002B4A526982432A4B5A61704729B1284A70
:1018500092690243264B9A6104E0254A92698243C9
:10186000234B9A61704729B1214AD2690243204B28
:10187000DA6104E01E4AD26982431D4BDA61704787
:1018800029B11B4AD2680243194BDA6004E0184AB6
:10189000D2688243164BDA60704729B1144A126944
:1018A0000243134B1A6104E0114A12698243104B40
:1018B0001A61704712494039086070470F49C8647F
:1018C00070470B49C87170470948406A40F0807002
:1018D00007494862704701460020054A92680A405D
:1018E0000AB1012000E0002070470149887270476A
:1018F000001002400000FFF8FFFFF6FE0000424229
:101900008004424200127A0000093D001E000020BF
:101910002E000020FD48032202614261FCA2826188
:10192000FE4BC3614FF48063036200238362436212
:10193000C362F7A20266FA4B436610238366002354
:101940000367C3664367002105E0C1F10F02F54B51
:101950009A5C4254491C1029F7D370472DE9F05F77
:101960000446894617464FF0000AE56800BFD4F8E0
:101970001080A84503D9A8EB0500461E04E0A5EB9E
:101980000800401CA1680E1AA068401BB04201D993
:10199000304601E0A068401B0646BE4201D23046F8
:1019A00000E038460646606800EB050B32464946C3
:1019B000584601F0BBF8B244B144BF1B3544A0689F
:1019C000A84200D10025E560002FD0D15046BDE8E7
:1019D000F09F2DE9F047044689461546E668A06861
:1019E000871BAF420AD9606800EB060A2A464946BF
:1019F000504601F09BF87019E06014E0B84660684A
:101A000000EB060A42464946504601F08FF8A5EB26
:101A10000708D4F804A009EB07014246504601F03C
:101A200085F8C4F80C80BDE8F08738B505460C464B
:101A3000FF208DF80000BC48005D8DF801000222F7
:101A400069462846FFF78AFF38BD10B501460A6986
:101A5000CB689A4204D88C68641EE41AA01801E08E
:101A6000D41A601E10BD2DE9F74F82B08346174689
:101A7000A648009000BF0098007808B9FFF74AFF19
:101A800000BF0BEB4B01A148183000EBC106DDF89D
:101A90000C903569D6F80CA04FF00008554517D9C1
:101AA000B068441BBC4201D2204600E038460446E0
:101AB00070682844019022464846019901F036F8A2
:101AC000A044A1443F1B2544B068A84200D1002592
:101AD000AAEB0504BC4201D2204600E03846044689
:101AE0005CB170682844019022464846019901F093
:101AF0001DF8A044A1443F1B2544B8F1000F00D0BD
:101B00003561404605B0BDE8F08F2DE9F74F82B052
:101B1000834617467D48009000BF0098007808B9BA
:101B2000FFF7F8FE00BF0BEB4B017848603000EB8D
:101B3000C106DDF80C903569D6F80CA04FF000080E
:101B4000554517D9B068441BBC4201D2204600E07D
:101B50003846044670682844019022464846019958
:101B600000F0E4FFA044A1443F1B2544B068A84214
:101B700000D10025AAEB0504BC4201D2204600E0BA
:101B8000384604465CB170682844019022464846B5
:101B9000019900F0CBFFA044A1443F1B2544B8F1BC
:101BA000000F00D03561404605B0BDE8F08F2DE94B
:101BB000F04104460D461646EFF311808046202082
:101BC00080F3118800BF00BF324629462046FFF748
:101BD0004AFF074608F0FF0080F3118800BF00BFEE
:101BE0003846BDE8F0812DE9F04104460D46164621
:101BF000EFF311808046202080F3118800BF00BFE2
:101C0000324629462046FFF780FF074608F0FF00CE
:101C100080F3118800BF00BF3846BDE8F0812DE990
:101C2000F047074688461646C14607EB4701374846
:101C3000183000EBC104D4E90301884202D1A06846
:101C4000451E0EE0D4E90301884204D22069E16810
:101C5000401A451E05E02069E168401A401EA1684F
:101C60004518AE420CD92069711B0844206103E07D
:101C70002069A168401A20612069A1688842F7D2D2
:101C8000D4E90201451A00BFB5420CD9E168606889
:101C900000EB010A32464946504600F047FFE06833
:101CA0003044E06010E0E168606800EB010A2A4619
:101CB0004946504600F03AFFA9440020E060761BF8
:101CC000A068451E002EDFD100BFBDE8F0872DE9DA
:101CD000F74F82B083461546039801900BEB4B01FA
:101CE0000A48183000EBC104D4F81090E668B145FA
:101CF00041D8A068801B471EAF421FD300BF606859
:101D000000EB060A2A46504601990FE00C0100201C
:101D10005465726D696E616C00000000B4010020B2
:101D2000B4050020882C00083200002000F0FEFEE0
:101D30007019E060012005B0BDE8F08F4F44AF425C
:101D40001FD3A068A0EB0608606800EB060A4246B5
:101D50005046019900F0EAFEA5EB080545B1D4F81C
:101D600004A0019800EB08012A46504600F0DEFE70
:101D7000E5600120DFE7A9EB0600471EAF4200D374
:101D8000BDE70020D7E72DE9F0470746884616460D
:101D9000C24607EB4701FC4800EBC109D9F8140023
:101DA00020B1012811D0022826D11EE04846FFF7B5
:101DB0004CFE0546B54201D2002405E034463246C9
:101DC00051464846FFF705FE18E04846FFF73DFE3E
:101DD0000546B54201D2284600E030460446224678
:101DE00051464846FFF7F5FD08E032465146484661
:101DF000FFF7B4FD044601E0002400BF00BF204609
:101E0000BDE8F0872DE9F047074688461646C246EA
:101E100007EB4701DC48483800EBC109D9F814004A
:101E200020B1012811D0022826D11EE04846FFF734
:101E30000CFE0546B54201D2002405E03446324688
:101E400051464846FFF7C5FD18E04846FFF7FDFD3F
:101E50000546B54201D2284600E0304604462246F7
:101E600051464846FFF7B5FD08E032465146484620
:101E7000FFF774FD044601E0002400BF00BF2046C8
:101E8000BDE8F0872DE9F04104460D461646BE4FE9
:101E9000603F00BF387808B9FFF73CFD00BFEFF3A3
:101EA00011800746202080F3118800BF00BF324612
:101EB00029462046FFF767FF8046F8B280F3118875
:101EC00000BF00BF4046BDE8F0812DE9F041044667
:101ED0000D461646AC4F603F00BF387808B9FFF793
:101EE00019FD00BFEFF311800746202080F3118811
:101EF00000BF00BF324629462046FFF783FF8046D9
:101F0000F8B280F3118800BF00BF4046BDE8F08101
:101F100070B505460C46204600F0E9FD06463246FF
:101F200021462846FFF7D1FF70BDF0B503460C46A9
:101F300003EB4307944E483E06EBC701CE68721C84
:101F40008E68964200D100220E69964206D0CF6874
:101F50004E68F5192C70CA60012000E00020F0BD29
:101F60002DE9F04707468846DFF81CA2AAF1600A6F
:101F700000BF9AF8000008B9FFF7CCFC00BFEFF3F0
:101F800011810846202181F3118800BF00BF07EBB3
:101F900047027D49483901EBC204E1684D1CA16844
:101FA000A94200D100252169A94208D0E2686168F0
:101FB00001EB020989F80080E560012600E00026B7
:101FC000C1B281F3118800BF00BF3046BDE8F08781
:101FD0002DE9F04707468846DFF8ACA1AAF1600A70
:101FE00000BF9AF8000008B9FFF794FC00BFEFF3B8
:101FF00011810846202181F3118800BF00BF07EB43
:1020000047026149483901EBC204E1684D1CA168EF
:10201000A94200D100256169022903D100BF2169CD
:10202000A942FCD02169A94208D0E268616801EBAD
:10203000020989F80080E560012600E00026C1B2AF
:1020400081F3118800BF00BF3046BDE8F08738B586
:10205000012269460020FFF7C6FD0446012C02D18B
:102060009DF8004001E04FF0FF34204638BD10B528
:1020700000BFFFF7ECFF0028FBDB10BD2DE9F041AE
:10208000414F603F00BF387808B9FFF743FC00BFFD
:102090003D4C2669E068B04201D0012500E00025F2
:1020A0002846BDE8F08110B5014601EB41043648F1
:1020B00000EBC402D3681069181A10BD10B50146B0
:1020C00001EB41043048483800EBC4021369D06882
:1020D000C01A10BD2DE9F04706460F4690469946B6
:1020E000DFF8A4A0AAF1600A00BF9AF8000008B9BE
:1020F000FFF710FC00BFEFF311810846202181F3A8
:10210000118800BF00BF204D603D002400BF04EBDC
:10211000440205F1600101EBC201496801B903E025
:10212000641C6969A142F2DC00BF6969A1422DDD2E
:1021300004EB440205F1600141F8326004EB440213
:1021400001EBC2014F6004EB440205F1600101EBB9
:10215000C201C1F80880002204EB440305F16001CC
:1021600001EBC3010A6104EB440305F1600101EBDB
:10217000C301CA6004EB440205F1600101EBC20136
:10218000C1F8149004E000006C0100204FF0FF340F
:10219000C1B281F3118800BF00BF2046BDE8F087BF
:1021A0002DE9F04706460F4690469946DFF810A401
:1021B00000BF9AF8000008B9FFF7ACFB00BFEFF3CF
:1021C00011810846202181F3118800BF00BFFC4D1A
:1021D000002400BF04EB440205F1180101EBC20129
:1021E000496801B903E0641C2969A142F2DC00BF1F
:1021F0002969A1422ADD04EB440205F1180141F8E6
:10220000326004EB440201EBC2014F6004EB440274
:1022100005F1180101EBC201C1F80880002204EBAE
:10222000440305F1180101EBC3010A6104EB440307
:1022300005F1180101EBC301CA6004EB440205F18A
:10224000180101EBC201C1F8149001E04FF0FF3416
:10225000C1B281F3118800BF00BF2046BDE8F087FE
:102260002DE9F05F05460F4690469946DFF850B3DA
:1022700000BF9BF8000008B9FFF74CFB00BFDFF878
:1022800040A3032D1FD2EFF311810846202181F3D3
:10229000118800BF00BF05EB45020AF1180101EBF0
:1022A000C2043DB12760C4F80480C4F8089000213E
:1022B0002161E1600A996161C1B281F3118800BFB7
:1022C00000BF002601E04FF0FF363046BDE8F09F2A
:1022D0002DE9F05F05460F4690469946DFF8E0B2DB
:1022E00000BF9BF8000008B9FFF714FB00BFDFF840
:1022F000D0A2032D1FD2EFF311810846202181F3D4
:10230000118800BF00BF05EB45020AF1600101EB37
:10231000C2043DB12760C4F80480C4F808900021CD
:102320002161E1600A996161C1B281F3118800BF46
:1023300000BF002601E04FF0FF363046BDE8F09FB9
:102340002DE9F04704460E46DFF8749200BF99F875
:10235000000008B9FFF7DEFA00BF994F032C16D230
:10236000EFF311810846202181F3118800BF00BFDF
:1023700004EB440207F1180101EBC208C8F8006041
:10238000C1B281F3118800BF00BF002501E04FF00A
:10239000FF352846BDE8F0872DE9F04704460E4694
:1023A000DFF81C9200BF99F8000008B9FFF7B2FAF5
:1023B00000BF834F032C16D2EFF311810846202172
:1023C00081F3118800BF00BF04EB440207F16001F4
:1023D00001EBC208C8F80060C1B281F3118800BFE8
:1023E00000BF002501E04FF0FF352846BDE8F0872B
:1023F0002DE9F04704460E46DFF8C49100BF99F876
:10240000000008B9FFF786FA00BF6D4F032C16D203
:10241000EFF311810846202181F3118800BF00BF2E
:1024200004EB440207F1180101EBC208C8F814607C
:10243000C1B281F3118800BF00BF002501E04FF059
:10244000FF352846BDE8F0872DE9F04704460E46E3
:10245000DFF86C9100BF99F8000008B9FFF75AFA4D
:1024600000BF574F032C16D2EFF3118108462021ED
:1024700081F3118800BF00BF04EB440207F1600143
:1024800001EBC208C8F81460C1B281F3118800BF23
:1024900000BF002501E04FF0FF352846BDE8F0877A
:1024A00010B5FFF737FA10BD2DE9F8430446DFF801
:1024B000108100BF98F8000008B9FFF72BFA00BFA1
:1024C0000027FF208DF80000102C31D23D48005D20
:1024D0008DF801003A4D1835EFF311808046202029
:1024E00080F3118800BF00BF287D00F003000228A0
:1024F00007D135480470022269462846FFF72EFAB4
:102500000FE02846FFF7A1FA0646022E07D32E4811
:102510000470022269462846FFF75BFA01E04FF09B
:10252000FF3708F0FF0080F3118800BF00BF01E013
:102530004FF0FF373846BDE8F8832DE9F0470746EE
:102540008946DFF87CA000BF9AF8000008B9FFF7C1
:10255000E1F900BF102F70DADFF8648008F1180885
:10256000484600F0C4FA0646EFF311808246202068
:1025700080F3118800BF00BF4046FFF766FA0546AA
:1025800098F8140000F0030020B101281ED00228A2
:1025900047D136E0301D854201D200240EE0394695
:1025A0004046FFF742FA324649464046FFF7D6F921
:1025B0000446054801784046FFF737FA34E000004A
:1025C0000C0100203200002042000020042D02D225
:1025D0004FF0FF3414E039464046FFF726FA281F33
:1025E000B04201D9304600E0281F02464946404625
:1025F000FFF7B4F90446294801784046FFF715FA79
:1026000012E039464046FFF710FA32464946404646
:10261000FFF7A4F90446214801784046FFF705FA80
:1026200002E04FF0FF3400BF00BF0AF0FF0080F36C
:10263000118800BF00BF02E0FFE74FF0FF342046E3
:10264000BDE8F08770B5044604EB4401144800EB84
:10265000C1052846FFF7F9F970BD70B50146104C69
:10266000183C01EB410604F1180505EBC6052A6983
:1026700001EB410604F1180505EBC605EB689A422B
:1026800001D8981A08E001EB410604F1180505EBA2
:10269000C605AD689E1AA81B70BD00004200002050
:1026A0002401002070B504460E46A568681C6168C8
:1026B000814206D320684655681CA060E068401C33
:1026C000E060D4E9011088420DD1A2682168206938
:1026D000FFF7FBFBA168884203D04FF0FF30E060BA
:1026E00001E00020A06070BD2DE9FC5F80468946B6
:1026F00015461E460C9CCDF804900127BB4605E00C
:102700000198B0FBF5F001900BF1010B0198A84284
:10271000F6D25E4500D9B3460D9800F00100D0B95D
:10272000CCB10D9800F00200022803D116B9302078
:10273000009001E02020009009E0641E40460099CE
:10274000FFF7B0FFD8F80C00002800DA02E00CB167
:10275000A345F2D300BFD8F80C00002835DB09E010
:10276000012E01D9761E04E0B9FBF7FAAA4500D282
:1027700001E06F43F4E700BF00BFB9FBF7FA0AFBC3
:102780001799D94810F80A104046FFF78BFFD8F880
:102790000C00002800DA03E0B7FBF5F7002FECD1BE
:1027A00000BF0D9800F0010078B174B109E0641E1B
:1027B00020214046FFF776FFD8F80C00002800DA09
:1027C00002E00CB1A345F2D300BFBDE8FC9F2DE9A8
:1027D000FC5F06460F4692469846DDE90C45002F01
:1027E00001DA784200E0384683464FF0010903E001
:1027F0009BFBFAFB09F10109D345F9DAC84500D979
:10280000C14634B1002F03DB05F00400042800D1D9
:10281000641E05F0020010B1B8F1000F11D005F0F0
:10282000010070B96CB108E0641E20213046FFF74A
:1028300039FFF068002800DA02E00CB1A145F3D3BB
:1028400000BFF068002836DB002F05DA7F422D211B
:102850003046FFF727FF07E005F00400042803D106
:102860002B213046FFF71EFFF068002823DB05F020
:102870000200022814D105F0010088B9B8F1000F58
:102880000ED16CB108E0641E30213046FFF70AFF1C
:10289000F068002800DA02E00CB1A145F3D300BFD4
:1028A000F068002807DB4346524639463046CDE9FA
:1028B0000045FFF719FFBDE8FC9F2DE9F04F99B0E7
:1028C00082460D46144603A814904020159000201F
:1028D0001690CDF860A0179000BF2E786D1C06B939
:1028E000DDE0252E79D100274FF0010900BF2E78B9
:1028F000232E12D02B2E0CD02D2E02D0302E10D104
:1029000003E047F001076D1C0EE047F002076D1C65
:102910000AE047F004076D1C06E047F008076D1C4D
:1029200002E04FF0000900BF00BFB9F1000FDED197
:102930004FF0000800BF2E78302E01DB392E00DD6D
:1029400007E06D1CA6F1300008EB880100EB4108A0
:10295000F1E700BF002013902E782E2E12D16D1CAF
:1029600000BF2E78302E01DB392E00DD09E06D1C12
:10297000A6F13000139901EB810100EB41001390A7
:10298000EFE700BF2E7800BF6C2E01D0682E02D179
:102990006D1C2E7800E000E0F6E700BF702E5DD0E1
:1029A00008DC252E6AD0582E35D0632E09D0642E2F
:1029B00069D113E0732E3CD0752E1DD0782E62D1D4
:1029C00028E02168081D2060D1F8009009F0FF0B75
:1029D000594614A8FFF766FE56E058E02168081D26
:1029E0002060D1F80090CDE900870A22494614A85A
:1029F000139BFFF7ECFE47E02168081D2060D1F82B
:102A00000090CDE900870A22494614A8139BFFF7DE
:102A10006BFE39E000BF2168081D2060D1F80090EE
:102A2000CDE900871022494614A8139BFFF75CFEEE
:102A30002AE02168081D2060D1F800B000BF9BF893
:102A400000600BF1010B06B906E0314614A8FFF750
:102A500029FE17980028F2DA00BF15E02168081D4A
:102A60002060D1F80090002008210B461022CDE90B
:102A70000010494614A8FFF737FE05E0252114A8E9
:102A8000FFF710FE00E000BF00BF6D1C03E0314601
:102A900014A8FFF707FE17980028BFF61EAF00BF67
:102AA000179800280ADD169820B103A95046169AF7
:102AB000FFF70BFADDE9161008441790179819B0C4
:102AC000BDE8F08F0FB438B5044606A800906A46FA
:102AD00020460599FFF7F1FE0546002000902846A4
:102AE00038BC5DF814FB0000992C0008704710B545
:102AF000431C02E010F8011B71B18107FAD14FF0BD
:102B0000013202C88C1A8C4314EAC211F9D0C01ADF
:102B10000A0603D0C01E10BDC01A10BD0A0401D0A1
:102B2000801E10BD0902FCD0401E10BD032A40F2D9
:102B3000308010F0030C00F0158011F8013BBCF15F
:102B4000020F624498BF11F801CB00F8013B38BF77
:102B500011F8013BA2F1040298BF00F801CB38BF85
:102B600000F8013B11F0030300F02980083AC0F09F
:102B7000088051F8043B083A51F804CBA0E808104B
:102B8000F5E7121D5CBF51F8043B40F8043BAFF37E
:102B90000080D20724BF11F8013B11F801CB48BFD8
:102BA00011F8012B24BF00F8013B00F801CB48BF0E
:102BB00000F8012B7047704770477047704710B599
:102BC000203AC0F00B80B1E81850203AA0E8185025
:102BD000B1E81850A0E81850BFF4F5AF5FEA027CE6
:102BE00024BFB1E81850A0E8185044BF18C918C055
:102BF000BDE810405FEA827C24BF51F8043B40F8F6
:102C0000043B08BF7047D20728BF31F8023B48BFDA
:102C100011F8012B28BF20F8023B48BF00F8012B18
:102C20007047754600F02CF8AE46050069465346DD
:102C300020F00700854618B020B5FDF789FDBDE8F6
:102C400020404FF000064FF000074FF000084FF013
:102C5000000B21F00701AC46ACE8C009ACE8C009A4
:102C6000ACE8C009ACE8C0098D46704710B5044611
:102C7000AFF300802046BDE81040FDF7A0BA000089
:102C800000487047C40500200000000000005454B4
:102C900052205245474745530030313233343536A0
:102CA000373839414243444546000000CC2C0008E7
:102CB00000000020440000006C010008102D0008F6
:102CC00044000020E40B00008801000800A24A0430
:102CD00000000000000000000102030406070809CC
:102CE00000000000000000000000000000000102E1
:102CF0000304010203040607080902040608303130
:102D00003233343536373839414243444546000082
:0400000508000131BD
:00000001FF
